{
  "abi": [
    {
      "inputs": [
        {
          "internalType": "contract IERC721",
          "name": "_nftCollection",
          "type": "address"
        },
        {
          "internalType": "contract IERC20",
          "name": "_rewardsToken",
          "type": "address"
        }
      ],
      "stateMutability": "nonpayable",
      "type": "constructor"
    },
    {
      "inputs": [
        {
          "internalType": "address",
          "name": "_staker",
          "type": "address"
        }
      ],
      "name": "availableRewards",
      "outputs": [
        {
          "internalType": "uint256",
          "name": "",
          "type": "uint256"
        }
      ],
      "stateMutability": "view",
      "type": "function"
    },
    {
      "inputs": [],
      "name": "claimRewards",
      "outputs": [],
      "stateMutability": "nonpayable",
      "type": "function"
    },
    {
      "inputs": [
        {
          "internalType": "address",
          "name": "_user",
          "type": "address"
        }
      ],
      "name": "getStakedTokens",
      "outputs": [
        {
          "components": [
            {
              "internalType": "address",
              "name": "staker",
              "type": "address"
            },
            {
              "internalType": "uint256",
              "name": "tokenId",
              "type": "uint256"
            }
          ],
          "internalType": "struct NFTStaking.StakedToken[]",
          "name": "",
          "type": "tuple[]"
        }
      ],
      "stateMutability": "view",
      "type": "function"
    },
    {
      "inputs": [],
      "name": "nftCollection",
      "outputs": [
        {
          "internalType": "contract IERC721",
          "name": "",
          "type": "address"
        }
      ],
      "stateMutability": "view",
      "type": "function"
    },
    {
      "inputs": [],
      "name": "rewardsToken",
      "outputs": [
        {
          "internalType": "contract IERC20",
          "name": "",
          "type": "address"
        }
      ],
      "stateMutability": "view",
      "type": "function"
    },
    {
      "inputs": [
        {
          "internalType": "uint256",
          "name": "_tokenId",
          "type": "uint256"
        }
      ],
      "name": "stake",
      "outputs": [],
      "stateMutability": "nonpayable",
      "type": "function"
    },
    {
      "inputs": [
        {
          "internalType": "uint256",
          "name": "",
          "type": "uint256"
        }
      ],
      "name": "stakerAddress",
      "outputs": [
        {
          "internalType": "address",
          "name": "",
          "type": "address"
        }
      ],
      "stateMutability": "view",
      "type": "function"
    },
    {
      "inputs": [
        {
          "internalType": "address",
          "name": "",
          "type": "address"
        }
      ],
      "name": "stakers",
      "outputs": [
        {
          "internalType": "uint256",
          "name": "amountStaked",
          "type": "uint256"
        },
        {
          "internalType": "uint256",
          "name": "timeOfLastUpdate",
          "type": "uint256"
        },
        {
          "internalType": "uint256",
          "name": "unclaimedRewards",
          "type": "uint256"
        }
      ],
      "stateMutability": "view",
      "type": "function"
    },
    {
      "inputs": [
        {
          "internalType": "uint256",
          "name": "_tokenId",
          "type": "uint256"
        }
      ],
      "name": "withdraw",
      "outputs": [],
      "stateMutability": "nonpayable",
      "type": "function"
    }
  ],
  "devdoc": {
    "kind": "dev",
    "methods": {},
    "version": 1
  },
  "evm": {
    "assembly": "    /* \"NFTStaking.sol\":311:6789  contract NFTStaking is ReentrancyGuard {... */\n  mstore(0x40, 0xc0)\n    /* \"NFTStaking.sol\":1285:1288  100 */\n  0x64\n    /* \"NFTStaking.sol\":1252:1288  uint256 private rewardsPerHour = 100 */\n  0x01\n  sstore\n    /* \"NFTStaking.sol\":521:667  constructor(IERC721 _nftCollection, IERC20 _rewardsToken) {... */\n  callvalue\n  dup1\n  iszero\n  tag_1\n  jumpi\n  0x00\n  dup1\n  revert\ntag_1:\n  pop\n  mload(0x40)\n  sub(codesize, bytecodeSize)\n  dup1\n  bytecodeSize\n  dup4\n  codecopy\n  dup2\n  add\n  0x40\n  dup2\n  swap1\n  mstore\n  tag_2\n  swap2\n  tag_3\n  jump\t// in\ntag_2:\n    /* \"@openzeppelin/contracts/security/ReentrancyGuard.sol\":1716:1717   */\n  0x01\n    /* \"@openzeppelin/contracts/security/ReentrancyGuard.sol\":1821:1828   */\n  0x00\n    /* \"@openzeppelin/contracts/security/ReentrancyGuard.sol\":1821:1843   */\n  sstore\n  sub(shl(0xa0, 0x01), 0x01)\n    /* \"NFTStaking.sol\":590:620  nftCollection = _nftCollection */\n  swap2\n  dup3\n  and\n  0xa0\n  mstore\n    /* \"NFTStaking.sol\":631:659  rewardsToken = _rewardsToken */\n  and\n  0x80\n  mstore\n    /* \"NFTStaking.sol\":311:6789  contract NFTStaking is ReentrancyGuard {... */\n  jump(tag_10)\n    /* \"#utility.yul\":14:154   */\ntag_9:\n  sub(shl(0xa0, 0x01), 0x01)\n    /* \"#utility.yul\":98:129   */\n  dup2\n  and\n    /* \"#utility.yul\":88:130   */\n  dup2\n  eq\n    /* \"#utility.yul\":78:148   */\n  tag_12\n  jumpi\n    /* \"#utility.yul\":144:145   */\n  0x00\n    /* \"#utility.yul\":141:142   */\n  dup1\n    /* \"#utility.yul\":134:146   */\n  revert\n    /* \"#utility.yul\":78:148   */\ntag_12:\n    /* \"#utility.yul\":14:154   */\n  pop\n  jump\t// out\n    /* \"#utility.yul\":159:591   */\ntag_3:\n    /* \"#utility.yul\":267:273   */\n  0x00\n    /* \"#utility.yul\":275:281   */\n  dup1\n    /* \"#utility.yul\":328:330   */\n  0x40\n    /* \"#utility.yul\":316:325   */\n  dup4\n    /* \"#utility.yul\":307:314   */\n  dup6\n    /* \"#utility.yul\":303:326   */\n  sub\n    /* \"#utility.yul\":299:331   */\n  slt\n    /* \"#utility.yul\":296:348   */\n  iszero\n  tag_14\n  jumpi\n    /* \"#utility.yul\":344:345   */\n  0x00\n    /* \"#utility.yul\":341:342   */\n  dup1\n    /* \"#utility.yul\":334:346   */\n  revert\n    /* \"#utility.yul\":296:348   */\ntag_14:\n    /* \"#utility.yul\":376:385   */\n  dup3\n    /* \"#utility.yul\":370:386   */\n  mload\n    /* \"#utility.yul\":395:435   */\n  tag_15\n    /* \"#utility.yul\":429:434   */\n  dup2\n    /* \"#utility.yul\":395:435   */\n  tag_9\n  jump\t// in\ntag_15:\n    /* \"#utility.yul\":504:506   */\n  0x20\n    /* \"#utility.yul\":489:507   */\n  dup5\n  add\n    /* \"#utility.yul\":483:508   */\n  mload\n    /* \"#utility.yul\":454:459   */\n  swap1\n  swap3\n  pop\n    /* \"#utility.yul\":517:559   */\n  tag_16\n    /* \"#utility.yul\":483:508   */\n  dup2\n    /* \"#utility.yul\":517:559   */\n  tag_9\n  jump\t// in\ntag_16:\n    /* \"#utility.yul\":578:585   */\n  dup1\n    /* \"#utility.yul\":568:585   */\n  swap2\n  pop\n  pop\n    /* \"#utility.yul\":159:591   */\n  swap3\n  pop\n  swap3\n  swap1\n  pop\n  jump\t// out\ntag_10:\n    /* \"NFTStaking.sol\":311:6789  contract NFTStaking is ReentrancyGuard {... */\n  mload(0x80)\n  mload(0xa0)\n  codecopy(0x00, dataOffset(sub_0), dataSize(sub_0))\n  0x00\n  assignImmutable(\"0x8e8fab5f003314da8d1873ea7720e8d9f47650136d916064d1edb8a11d682624\")\n  0x00\n  assignImmutable(\"0x5c4c6aa067b6f8e6cb38e6ab843832a94d1712d661a04d73c517d6a1931a9e5d\")\n  return(0x00, dataSize(sub_0))\nstop\n\nsub_0: assembly {\n        /* \"NFTStaking.sol\":311:6789  contract NFTStaking is ReentrancyGuard {... */\n      mstore(0x40, 0x80)\n      callvalue\n      dup1\n      iszero\n      tag_1\n      jumpi\n      0x00\n      dup1\n      revert\n    tag_1:\n      pop\n      jumpi(tag_2, lt(calldatasize, 0x04))\n      shr(0xe0, calldataload(0x00))\n      dup1\n      0x9168ae72\n      gt\n      tag_12\n      jumpi\n      dup1\n      0xa694fc3a\n      gt\n      tag_13\n      jumpi\n      dup1\n      0xa694fc3a\n      eq\n      tag_9\n      jumpi\n      dup1\n      0xd1af0c7d\n      eq\n      tag_10\n      jumpi\n      dup1\n      0xf854a27f\n      eq\n      tag_11\n      jumpi\n      0x00\n      dup1\n      revert\n    tag_13:\n      dup1\n      0x9168ae72\n      eq\n      tag_7\n      jumpi\n      dup1\n      0x94067045\n      eq\n      tag_8\n      jumpi\n      0x00\n      dup1\n      revert\n    tag_12:\n      dup1\n      0x2e1a7d4d\n      eq\n      tag_3\n      jumpi\n      dup1\n      0x372500ab\n      eq\n      tag_4\n      jumpi\n      dup1\n      0x63c28db1\n      eq\n      tag_5\n      jumpi\n      dup1\n      0x6588103b\n      eq\n      tag_6\n      jumpi\n    tag_2:\n      0x00\n      dup1\n      revert\n        /* \"NFTStaking.sol\":3720:4985  function withdraw(uint256 _tokenId) external nonReentrant {... */\n    tag_3:\n      tag_14\n      tag_15\n      calldatasize\n      0x04\n      tag_16\n      jump\t// in\n    tag_15:\n      tag_17\n      jump\t// in\n    tag_14:\n      stop\n        /* \"NFTStaking.sol\":4993:5385  function claimRewards() external {... */\n    tag_4:\n      tag_14\n      tag_19\n      jump\t// in\n        /* \"NFTStaking.sol\":5887:6786  function getStakedTokens(... */\n    tag_5:\n      tag_20\n      tag_21\n      calldatasize\n      0x04\n      tag_22\n      jump\t// in\n    tag_21:\n      tag_23\n      jump\t// in\n    tag_20:\n      mload(0x40)\n      tag_24\n      swap2\n      swap1\n      tag_25\n      jump\t// in\n    tag_24:\n      mload(0x40)\n      dup1\n      swap2\n      sub\n      swap1\n      return\n        /* \"NFTStaking.sol\":474:512  IERC721 public immutable nftCollection */\n    tag_6:\n      tag_26\n      immutable(\"0x8e8fab5f003314da8d1873ea7720e8d9f47650136d916064d1edb8a11d682624\")\n      dup2\n      jump\n    tag_26:\n      mload(0x40)\n      sub(shl(0xa0, 0x01), 0x01)\n        /* \"#utility.yul\":1635:1690   */\n      swap1\n      swap2\n      and\n        /* \"#utility.yul\":1617:1691   */\n      dup2\n      mstore\n        /* \"#utility.yul\":1605:1607   */\n      0x20\n        /* \"#utility.yul\":1590:1608   */\n      add\n        /* \"NFTStaking.sol\":474:512  IERC721 public immutable nftCollection */\n      tag_24\n        /* \"#utility.yul\":1456:1697   */\n      jump\n        /* \"NFTStaking.sol\":1344:1385  mapping(address => Staker) public stakers */\n    tag_7:\n      tag_30\n      tag_31\n      calldatasize\n      0x04\n      tag_22\n      jump\t// in\n    tag_31:\n      0x02\n      0x20\n      dup2\n      swap1\n      mstore\n      0x00\n      swap2\n      dup3\n      mstore\n      0x40\n      swap1\n      swap2\n      keccak256\n      dup1\n      sload\n      swap2\n      dup2\n      add\n      sload\n      0x03\n      swap1\n      swap2\n      add\n      sload\n      dup4\n      jump\n    tag_30:\n      0x40\n      dup1\n      mload\n        /* \"#utility.yul\":1904:1929   */\n      swap4\n      dup5\n      mstore\n        /* \"#utility.yul\":1960:1962   */\n      0x20\n        /* \"#utility.yul\":1945:1963   */\n      dup5\n      add\n        /* \"#utility.yul\":1938:1972   */\n      swap3\n      swap1\n      swap3\n      mstore\n        /* \"#utility.yul\":1988:2006   */\n      swap1\n      dup3\n      add\n        /* \"#utility.yul\":1981:2015   */\n      mstore\n        /* \"#utility.yul\":1892:1894   */\n      0x60\n        /* \"#utility.yul\":1877:1895   */\n      add\n        /* \"NFTStaking.sol\":1344:1385  mapping(address => Staker) public stakers */\n      tag_24\n        /* \"#utility.yul\":1702:2021   */\n      jump\n        /* \"NFTStaking.sol\":1986:2034  mapping(uint256 => address) public stakerAddress */\n    tag_8:\n      tag_26\n      tag_36\n      calldatasize\n      0x04\n      tag_16\n      jump\t// in\n    tag_36:\n      mstore(0x20, 0x03)\n      0x00\n      swap1\n      dup2\n      mstore\n      0x40\n      swap1\n      keccak256\n      sload\n      sub(shl(0xa0, 0x01), 0x01)\n      and\n      dup2\n      jump\n        /* \"NFTStaking.sol\":2043:3712  function stake(uint256 _tokenId) external nonReentrant {... */\n    tag_9:\n      tag_14\n      tag_41\n      calldatasize\n      0x04\n      tag_16\n      jump\t// in\n    tag_41:\n      tag_42\n      jump\t// in\n        /* \"NFTStaking.sol\":431:467  IERC20 public immutable rewardsToken */\n    tag_10:\n      tag_26\n      immutable(\"0x5c4c6aa067b6f8e6cb38e6ab843832a94d1712d661a04d73c517d6a1931a9e5d\")\n      dup2\n      jump\n        /* \"NFTStaking.sol\":5670:5879  function availableRewards(address _staker) public view returns (uint256) {... */\n    tag_11:\n      tag_47\n      tag_48\n      calldatasize\n      0x04\n      tag_22\n      jump\t// in\n    tag_48:\n      tag_49\n      jump\t// in\n    tag_47:\n      mload(0x40)\n        /* \"#utility.yul\":2648:2673   */\n      swap1\n      dup2\n      mstore\n        /* \"#utility.yul\":2636:2638   */\n      0x20\n        /* \"#utility.yul\":2621:2639   */\n      add\n        /* \"NFTStaking.sol\":5670:5879  function availableRewards(address _staker) public view returns (uint256) {... */\n      tag_24\n        /* \"#utility.yul\":2502:2679   */\n      jump\n        /* \"NFTStaking.sol\":3720:4985  function withdraw(uint256 _tokenId) external nonReentrant {... */\n    tag_17:\n        /* \"@openzeppelin/contracts/security/ReentrancyGuard.sol\":2261:2282   */\n      tag_53\n        /* \"@openzeppelin/contracts/security/ReentrancyGuard.sol\":2261:2280   */\n      tag_54\n        /* \"@openzeppelin/contracts/security/ReentrancyGuard.sol\":2261:2282   */\n      jump\t// in\n    tag_53:\n        /* \"NFTStaking.sol\":3862:3872  msg.sender */\n      caller\n        /* \"NFTStaking.sol\":3889:3890  0 */\n      0x00\n        /* \"NFTStaking.sol\":3854:3873  stakers[msg.sender] */\n      swap1\n      dup2\n      mstore\n        /* \"NFTStaking.sol\":3854:3861  stakers */\n      0x02\n        /* \"NFTStaking.sol\":3854:3873  stakers[msg.sender] */\n      0x20\n      mstore\n      0x40\n      swap1\n      keccak256\n        /* \"NFTStaking.sol\":3854:3886  stakers[msg.sender].amountStaked */\n      sload\n        /* \"NFTStaking.sol\":3832:3947  require(... */\n      tag_56\n      jumpi\n      mload(0x40)\n      shl(0xe5, 0x461bcd)\n      dup2\n      mstore\n        /* \"#utility.yul\":2886:2888   */\n      0x20\n        /* \"NFTStaking.sol\":3832:3947  require(... */\n      0x04\n      dup3\n      add\n        /* \"#utility.yul\":2868:2889   */\n      mstore\n        /* \"#utility.yul\":2925:2927   */\n      0x1d\n        /* \"#utility.yul\":2905:2923   */\n      0x24\n      dup3\n      add\n        /* \"#utility.yul\":2898:2928   */\n      mstore\n        /* \"#utility.yul\":2964:2995   */\n      0x596f7520646f6e2774206861766520746865204e4654207374616b6564000000\n        /* \"#utility.yul\":2944:2962   */\n      0x44\n      dup3\n      add\n        /* \"#utility.yul\":2937:2996   */\n      mstore\n        /* \"#utility.yul\":3013:3031   */\n      0x64\n      add\n        /* \"NFTStaking.sol\":3832:3947  require(... */\n    tag_57:\n      mload(0x40)\n      dup1\n      swap2\n      sub\n      swap1\n      revert\n    tag_56:\n        /* \"NFTStaking.sol\":4014:4037  stakerAddress[_tokenId] */\n      0x00\n      dup2\n      dup2\n      mstore\n        /* \"NFTStaking.sol\":4014:4027  stakerAddress */\n      0x03\n        /* \"NFTStaking.sol\":4014:4037  stakerAddress[_tokenId] */\n      0x20\n      mstore\n      0x40\n      swap1\n      keccak256\n      sload\n      sub(shl(0xa0, 0x01), 0x01)\n      and\n        /* \"NFTStaking.sol\":4041:4051  msg.sender */\n      caller\n        /* \"NFTStaking.sol\":4014:4051  stakerAddress[_tokenId] == msg.sender */\n      eq\n        /* \"NFTStaking.sol\":4006:4077  require(stakerAddress[_tokenId] == msg.sender, \"You are not the owner\") */\n      tag_59\n      jumpi\n      mload(0x40)\n      shl(0xe5, 0x461bcd)\n      dup2\n      mstore\n        /* \"#utility.yul\":3244:3246   */\n      0x20\n        /* \"NFTStaking.sol\":4006:4077  require(stakerAddress[_tokenId] == msg.sender, \"You are not the owner\") */\n      0x04\n      dup3\n      add\n        /* \"#utility.yul\":3226:3247   */\n      mstore\n        /* \"#utility.yul\":3283:3285   */\n      0x15\n        /* \"#utility.yul\":3263:3281   */\n      0x24\n      dup3\n      add\n        /* \"#utility.yul\":3256:3286   */\n      mstore\n        /* \"#utility.yul\":3322:3345   */\n      0x596f7520617265206e6f7420746865206f776e65720000000000000000000000\n        /* \"#utility.yul\":3302:3320   */\n      0x44\n      dup3\n      add\n        /* \"#utility.yul\":3295:3346   */\n      mstore\n        /* \"#utility.yul\":3363:3381   */\n      0x64\n      add\n        /* \"NFTStaking.sol\":4006:4077  require(stakerAddress[_tokenId] == msg.sender, \"You are not the owner\") */\n      tag_57\n        /* \"#utility.yul\":3042:3387   */\n      jump\n        /* \"NFTStaking.sol\":4006:4077  require(stakerAddress[_tokenId] == msg.sender, \"You are not the owner\") */\n    tag_59:\n        /* \"NFTStaking.sol\":4160:4173  uint256 index */\n      0x00\n        /* \"NFTStaking.sol\":4193:4202  uint256 i */\n      dup1\n        /* \"NFTStaking.sol\":4188:4413  for (uint256 i = 0; i < stakers[msg.sender].stakedTokens.length; i++) {... */\n    tag_62:\n        /* \"NFTStaking.sol\":4220:4230  msg.sender */\n      caller\n        /* \"NFTStaking.sol\":4212:4231  stakers[msg.sender] */\n      0x00\n      swap1\n      dup2\n      mstore\n        /* \"NFTStaking.sol\":4212:4219  stakers */\n      0x02\n        /* \"NFTStaking.sol\":4212:4231  stakers[msg.sender] */\n      0x20\n      mstore\n      0x40\n      swap1\n      keccak256\n        /* \"NFTStaking.sol\":4212:4244  stakers[msg.sender].stakedTokens */\n      0x01\n      add\n        /* \"NFTStaking.sol\":4212:4251  stakers[msg.sender].stakedTokens.length */\n      sload\n        /* \"NFTStaking.sol\":4208:4251  i < stakers[msg.sender].stakedTokens.length */\n      dup2\n      lt\n        /* \"NFTStaking.sol\":4188:4413  for (uint256 i = 0; i < stakers[msg.sender].stakedTokens.length; i++) {... */\n      iszero\n      tag_63\n      jumpi\n        /* \"NFTStaking.sol\":4285:4295  msg.sender */\n      caller\n        /* \"NFTStaking.sol\":4277:4296  stakers[msg.sender] */\n      0x00\n      swap1\n      dup2\n      mstore\n        /* \"NFTStaking.sol\":4277:4284  stakers */\n      0x02\n        /* \"NFTStaking.sol\":4277:4296  stakers[msg.sender] */\n      0x20\n      mstore\n      0x40\n      swap1\n      keccak256\n        /* \"NFTStaking.sol\":4277:4309  stakers[msg.sender].stakedTokens */\n      0x01\n      add\n        /* \"NFTStaking.sol\":4277:4312  stakers[msg.sender].stakedTokens[i] */\n      dup1\n      sload\n        /* \"NFTStaking.sol\":4324:4332  _tokenId */\n      dup5\n      swap2\n        /* \"NFTStaking.sol\":4277:4309  stakers[msg.sender].stakedTokens */\n      swap1\n        /* \"NFTStaking.sol\":4310:4311  i */\n      dup4\n      swap1\n        /* \"NFTStaking.sol\":4277:4312  stakers[msg.sender].stakedTokens[i] */\n      dup2\n      lt\n      tag_66\n      jumpi\n      tag_66\n      tag_67\n      jump\t// in\n    tag_66:\n      swap1\n      0x00\n      mstore\n      keccak256(0x00, 0x20)\n      swap1\n      0x02\n      mul\n      add\n        /* \"NFTStaking.sol\":4277:4320  stakers[msg.sender].stakedTokens[i].tokenId */\n      0x01\n      add\n      sload\n        /* \"NFTStaking.sol\":4277:4332  stakers[msg.sender].stakedTokens[i].tokenId == _tokenId */\n      sub\n        /* \"NFTStaking.sol\":4273:4402  if (stakers[msg.sender].stakedTokens[i].tokenId == _tokenId) {... */\n      tag_69\n      jumpi\n        /* \"NFTStaking.sol\":4361:4362  i */\n      dup1\n        /* \"NFTStaking.sol\":4353:4362  index = i */\n      swap2\n      pop\n        /* \"NFTStaking.sol\":4381:4386  break */\n      jump(tag_63)\n        /* \"NFTStaking.sol\":4273:4402  if (stakers[msg.sender].stakedTokens[i].tokenId == _tokenId) {... */\n    tag_69:\n        /* \"NFTStaking.sol\":4253:4256  i++ */\n      dup1\n      tag_70\n      dup2\n      tag_71\n      jump\t// in\n    tag_70:\n      swap2\n      pop\n      pop\n        /* \"NFTStaking.sol\":4188:4413  for (uint256 i = 0; i < stakers[msg.sender].stakedTokens.length; i++) {... */\n      jump(tag_62)\n    tag_63:\n      pop\n        /* \"NFTStaking.sol\":4491:4501  msg.sender */\n      caller\n        /* \"NFTStaking.sol\":4540:4541  0 */\n      0x00\n        /* \"NFTStaking.sol\":4483:4502  stakers[msg.sender] */\n      swap1\n      dup2\n      mstore\n        /* \"NFTStaking.sol\":4483:4490  stakers */\n      0x02\n        /* \"NFTStaking.sol\":4483:4502  stakers[msg.sender] */\n      0x20\n      mstore\n      0x40\n      dup2\n      keccak256\n        /* \"NFTStaking.sol\":4483:4515  stakers[msg.sender].stakedTokens */\n      0x01\n      add\n        /* \"NFTStaking.sol\":4483:4522  stakers[msg.sender].stakedTokens[index] */\n      dup1\n      sload\n        /* \"NFTStaking.sol\":4516:4521  index */\n      dup4\n      swap1\n        /* \"NFTStaking.sol\":4483:4522  stakers[msg.sender].stakedTokens[index] */\n      dup2\n      lt\n      tag_73\n      jumpi\n      tag_73\n      tag_67\n      jump\t// in\n    tag_73:\n      0x00\n      swap2\n      dup3\n      mstore\n      0x20\n      dup1\n      dup4\n      keccak256\n      0x02\n      swap3\n      dup4\n      mul\n      add\n        /* \"NFTStaking.sol\":4483:4542  stakers[msg.sender].stakedTokens[index].staker = address(0) */\n      dup1\n      sload\n      not(sub(shl(0xa0, 0x01), 0x01))\n      and\n      sub(shl(0xa0, 0x01), 0x01)\n      swap6\n      swap1\n      swap6\n      and\n      swap5\n      swap1\n      swap5\n      or\n      swap1\n      swap4\n      sstore\n        /* \"NFTStaking.sol\":4585:4595  msg.sender */\n      caller\n        /* \"NFTStaking.sol\":4577:4596  stakers[msg.sender] */\n      dup3\n      mstore\n      swap1\n      swap2\n      mstore\n      0x40\n      dup2\n      keccak256\n        /* \"NFTStaking.sol\":4577:4611  stakers[msg.sender].amountStaked-- */\n      dup1\n      sload\n      swap2\n      tag_75\n      dup4\n      tag_76\n      jump\t// in\n    tag_75:\n      swap1\n      swap2\n      sstore\n      pop\n      pop\n        /* \"NFTStaking.sol\":4763:4764  0 */\n      0x00\n        /* \"NFTStaking.sol\":4729:4752  stakerAddress[_tokenId] */\n      dup3\n      dup2\n      mstore\n        /* \"NFTStaking.sol\":4729:4742  stakerAddress */\n      0x03\n        /* \"NFTStaking.sol\":4729:4752  stakerAddress[_tokenId] */\n      0x20\n      mstore\n      0x40\n      swap1\n      dup2\n      swap1\n      keccak256\n        /* \"NFTStaking.sol\":4729:4765  stakerAddress[_tokenId] = address(0) */\n      dup1\n      sload\n      not(sub(shl(0xa0, 0x01), 0x01))\n      and\n      swap1\n      sstore\n        /* \"NFTStaking.sol\":4804:4867  nftCollection.transferFrom(address(this), msg.sender, _tokenId) */\n      mload\n      shl(0xe0, 0x23b872dd)\n      dup2\n      mstore\n        /* \"NFTStaking.sol\":4839:4843  this */\n      address\n        /* \"NFTStaking.sol\":4804:4867  nftCollection.transferFrom(address(this), msg.sender, _tokenId) */\n      0x04\n      dup3\n      add\n        /* \"#utility.yul\":4200:4234   */\n      mstore\n        /* \"NFTStaking.sol\":4846:4856  msg.sender */\n      caller\n        /* \"#utility.yul\":4250:4268   */\n      0x24\n      dup3\n      add\n        /* \"#utility.yul\":4243:4286   */\n      mstore\n        /* \"#utility.yul\":4302:4320   */\n      0x44\n      dup2\n      add\n        /* \"#utility.yul\":4295:4329   */\n      dup4\n      swap1\n      mstore\n      sub(shl(0xa0, 0x01), 0x01)\n        /* \"NFTStaking.sol\":4804:4817  nftCollection */\n      immutable(\"0x8e8fab5f003314da8d1873ea7720e8d9f47650136d916064d1edb8a11d682624\")\n        /* \"NFTStaking.sol\":4804:4830  nftCollection.transferFrom */\n      and\n      swap1\n      0x23b872dd\n      swap1\n        /* \"#utility.yul\":4112:4130   */\n      0x64\n      add\n        /* \"NFTStaking.sol\":4804:4867  nftCollection.transferFrom(address(this), msg.sender, _tokenId) */\n      0x00\n      mload(0x40)\n      dup1\n      dup4\n      sub\n      dup2\n      0x00\n      dup8\n      dup1\n      extcodesize\n      iszero\n      dup1\n      iszero\n      tag_79\n      jumpi\n      0x00\n      dup1\n      revert\n    tag_79:\n      pop\n      gas\n      call\n      iszero\n      dup1\n      iszero\n      tag_81\n      jumpi\n      returndatasize\n      0x00\n      dup1\n      returndatacopy\n      revert(0x00, returndatasize)\n    tag_81:\n      pop\n      pop\n        /* \"NFTStaking.sol\":4931:4941  msg.sender */\n      caller\n        /* \"NFTStaking.sol\":4923:4942  stakers[msg.sender] */\n      0x00\n      swap1\n      dup2\n      mstore\n        /* \"NFTStaking.sol\":4923:4930  stakers */\n      0x02\n        /* \"NFTStaking.sol\":4923:4942  stakers[msg.sender] */\n      0x20\n      dup2\n      swap1\n      mstore\n      0x40\n      swap1\n      swap2\n      keccak256\n        /* \"NFTStaking.sol\":4962:4977  block.timestamp */\n      timestamp\n        /* \"NFTStaking.sol\":4923:4959  stakers[msg.sender].timeOfLastUpdate */\n      swap2\n      add\n        /* \"NFTStaking.sol\":4923:4977  stakers[msg.sender].timeOfLastUpdate = block.timestamp */\n      sstore\n      pop\n        /* \"@openzeppelin/contracts/security/ReentrancyGuard.sol\":2303:2323   */\n      tag_82\n      swap2\n      pop\n        /* \"@openzeppelin/contracts/security/ReentrancyGuard.sol\":2303:2321   */\n      tag_83\n      swap1\n      pop\n        /* \"@openzeppelin/contracts/security/ReentrancyGuard.sol\":2303:2323   */\n      jump\t// in\n    tag_82:\n        /* \"NFTStaking.sol\":3720:4985  function withdraw(uint256 _tokenId) external nonReentrant {... */\n      pop\n      jump\t// out\n        /* \"NFTStaking.sol\":4993:5385  function claimRewards() external {... */\n    tag_19:\n        /* \"NFTStaking.sol\":5104:5114  msg.sender */\n      caller\n        /* \"NFTStaking.sol\":5037:5049  uint rewards */\n      0x00\n        /* \"NFTStaking.sol\":5096:5115  stakers[msg.sender] */\n      dup2\n      dup2\n      mstore\n        /* \"NFTStaking.sol\":5096:5103  stakers */\n      0x02\n        /* \"NFTStaking.sol\":5096:5115  stakers[msg.sender] */\n      0x20\n      mstore\n      0x40\n      dup2\n      keccak256\n        /* \"NFTStaking.sol\":5096:5132  stakers[msg.sender].unclaimedRewards */\n      0x03\n      add\n      sload\n        /* \"NFTStaking.sol\":5037:5049  uint rewards */\n      swap1\n      swap2\n        /* \"NFTStaking.sol\":5052:5080  calculateRewards(msg.sender) */\n      tag_85\n      swap1\n        /* \"NFTStaking.sol\":5052:5068  calculateRewards */\n      tag_86\n        /* \"NFTStaking.sol\":5052:5080  calculateRewards(msg.sender) */\n      jump\t// in\n    tag_85:\n        /* \"NFTStaking.sol\":5052:5132  calculateRewards(msg.sender) +... */\n      tag_87\n      swap2\n      swap1\n      tag_88\n      jump\t// in\n    tag_87:\n        /* \"NFTStaking.sol\":5037:5132  uint rewards = calculateRewards(msg.sender) +... */\n      swap1\n      pop\n        /* \"NFTStaking.sol\":5163:5164  0 */\n      0x00\n        /* \"NFTStaking.sol\":5153:5160  rewards */\n      dup2\n        /* \"NFTStaking.sol\":5153:5164  rewards > 0 */\n      gt\n        /* \"NFTStaking.sol\":5145:5200  require(rewards > 0, \"You don't have rewards to claim\") */\n      tag_89\n      jumpi\n      mload(0x40)\n      shl(0xe5, 0x461bcd)\n      dup2\n      mstore\n        /* \"#utility.yul\":4672:4674   */\n      0x20\n        /* \"NFTStaking.sol\":5145:5200  require(rewards > 0, \"You don't have rewards to claim\") */\n      0x04\n      dup3\n      add\n        /* \"#utility.yul\":4654:4675   */\n      mstore\n        /* \"#utility.yul\":4711:4713   */\n      0x1f\n        /* \"#utility.yul\":4691:4709   */\n      0x24\n      dup3\n      add\n        /* \"#utility.yul\":4684:4714   */\n      mstore\n        /* \"#utility.yul\":4750:4783   */\n      0x596f7520646f6e27742068617665207265776172647320746f20636c61696d00\n        /* \"#utility.yul\":4730:4748   */\n      0x44\n      dup3\n      add\n        /* \"#utility.yul\":4723:4784   */\n      mstore\n        /* \"#utility.yul\":4801:4819   */\n      0x64\n      add\n        /* \"NFTStaking.sol\":5145:5200  require(rewards > 0, \"You don't have rewards to claim\") */\n      tag_57\n        /* \"#utility.yul\":4470:4825   */\n      jump\n        /* \"NFTStaking.sol\":5145:5200  require(rewards > 0, \"You don't have rewards to claim\") */\n    tag_89:\n        /* \"NFTStaking.sol\":5221:5231  msg.sender */\n      caller\n        /* \"NFTStaking.sol\":5213:5232  stakers[msg.sender] */\n      0x00\n      dup2\n      dup2\n      mstore\n        /* \"NFTStaking.sol\":5213:5220  stakers */\n      0x02\n        /* \"NFTStaking.sol\":5213:5232  stakers[msg.sender] */\n      0x20\n      dup2\n      swap1\n      mstore\n      0x40\n      dup3\n      keccak256\n        /* \"NFTStaking.sol\":5252:5267  block.timestamp */\n      timestamp\n        /* \"NFTStaking.sol\":5213:5249  stakers[msg.sender].timeOfLastUpdate */\n      swap2\n      dup2\n      add\n        /* \"NFTStaking.sol\":5213:5267  stakers[msg.sender].timeOfLastUpdate = block.timestamp */\n      swap2\n      swap1\n      swap2\n      sstore\n        /* \"NFTStaking.sol\":5278:5314  stakers[msg.sender].unclaimedRewards */\n      0x03\n      add\n        /* \"NFTStaking.sol\":5278:5318  stakers[msg.sender].unclaimedRewards = 0 */\n      sstore\n        /* \"NFTStaking.sol\":5331:5377  rewardsToken.safeTransfer(msg.sender, rewards) */\n      tag_82\n      swap1\n        /* \"NFTStaking.sol\":5331:5343  rewardsToken */\n      immutable(\"0x5c4c6aa067b6f8e6cb38e6ab843832a94d1712d661a04d73c517d6a1931a9e5d\")\n      sub(shl(0xa0, 0x01), 0x01)\n        /* \"NFTStaking.sol\":5331:5356  rewardsToken.safeTransfer */\n      and\n      swap1\n        /* \"NFTStaking.sol\":5369:5376  rewards */\n      dup4\n        /* \"NFTStaking.sol\":5331:5356  rewardsToken.safeTransfer */\n      tag_93\n        /* \"NFTStaking.sol\":5331:5377  rewardsToken.safeTransfer(msg.sender, rewards) */\n      jump\t// in\n        /* \"NFTStaking.sol\":5887:6786  function getStakedTokens(... */\n    tag_23:\n      sub(shl(0xa0, 0x01), 0x01)\n        /* \"NFTStaking.sol\":6028:6042  stakers[_user] */\n      dup2\n      and\n        /* \"NFTStaking.sol\":6058:6059  0 */\n      0x00\n        /* \"NFTStaking.sol\":6028:6042  stakers[_user] */\n      swap1\n      dup2\n      mstore\n        /* \"NFTStaking.sol\":6028:6035  stakers */\n      0x02\n        /* \"NFTStaking.sol\":6028:6042  stakers[_user] */\n      0x20\n      mstore\n      0x40\n      swap1\n      keccak256\n        /* \"NFTStaking.sol\":6028:6055  stakers[_user].amountStaked */\n      sload\n        /* \"NFTStaking.sol\":5964:5984  StakedToken[] memory */\n      0x60\n      swap1\n        /* \"NFTStaking.sol\":6028:6059  stakers[_user].amountStaked > 0 */\n      iszero\n        /* \"NFTStaking.sol\":6024:6779  if (stakers[_user].amountStaked > 0) {... */\n      tag_95\n      jumpi\n      sub(shl(0xa0, 0x01), 0x01)\n        /* \"NFTStaking.sol\":6242:6256  stakers[_user] */\n      dup3\n      and\n        /* \"NFTStaking.sol\":6169:6203  StakedToken[] memory _stakedTokens */\n      0x00\n        /* \"NFTStaking.sol\":6242:6256  stakers[_user] */\n      swap1\n      dup2\n      mstore\n        /* \"NFTStaking.sol\":6242:6249  stakers */\n      0x02\n        /* \"NFTStaking.sol\":6242:6256  stakers[_user] */\n      0x20\n      mstore\n      0x40\n      dup2\n      keccak256\n        /* \"NFTStaking.sol\":6242:6269  stakers[_user].amountStaked */\n      sload\n        /* \"NFTStaking.sol\":6206:6284  new StakedToken[](... */\n      0xffffffffffffffff\n      dup2\n      gt\n      iszero\n      tag_97\n      jumpi\n      tag_97\n      tag_98\n      jump\t// in\n    tag_97:\n      mload(0x40)\n      swap1\n      dup1\n      dup3\n      mstore\n      dup1\n      0x20\n      mul\n      0x20\n      add\n      dup3\n      add\n      0x40\n      mstore\n      dup1\n      iszero\n      tag_99\n      jumpi\n      dup2\n      0x20\n      add\n    tag_100:\n      0x40\n      dup1\n      mload\n      dup1\n      dup3\n      add\n      swap1\n      swap2\n      mstore\n      0x00\n      dup1\n      dup3\n      mstore\n      0x20\n      dup3\n      add\n      mstore\n      dup2\n      mstore\n      0x20\n      add\n      swap1\n      0x01\n      swap1\n      sub\n      swap1\n      dup2\n      tag_100\n      jumpi\n      swap1\n      pop\n    tag_99:\n      pop\n        /* \"NFTStaking.sol\":6169:6284  StakedToken[] memory _stakedTokens = new StakedToken[](... */\n      swap1\n      pop\n        /* \"NFTStaking.sol\":6299:6313  uint256 _index */\n      0x00\n        /* \"NFTStaking.sol\":6339:6348  uint256 j */\n      dup1\n        /* \"NFTStaking.sol\":6334:6620  for (uint256 j = 0; j < stakers[_user].stakedTokens.length; j++) {... */\n    tag_103:\n      sub(shl(0xa0, 0x01), 0x01)\n        /* \"NFTStaking.sol\":6358:6372  stakers[_user] */\n      dup6\n      and\n      0x00\n      swap1\n      dup2\n      mstore\n        /* \"NFTStaking.sol\":6358:6365  stakers */\n      0x02\n        /* \"NFTStaking.sol\":6358:6372  stakers[_user] */\n      0x20\n      mstore\n      0x40\n      swap1\n      keccak256\n        /* \"NFTStaking.sol\":6358:6385  stakers[_user].stakedTokens */\n      0x01\n      add\n        /* \"NFTStaking.sol\":6358:6392  stakers[_user].stakedTokens.length */\n      sload\n        /* \"NFTStaking.sol\":6354:6392  j < stakers[_user].stakedTokens.length */\n      dup2\n      lt\n        /* \"NFTStaking.sol\":6334:6620  for (uint256 j = 0; j < stakers[_user].stakedTokens.length; j++) {... */\n      iszero\n      tag_104\n      jumpi\n      sub(shl(0xa0, 0x01), 0x01)\n        /* \"NFTStaking.sol\":6422:6436  stakers[_user] */\n      dup6\n      and\n        /* \"NFTStaking.sol\":6472:6473  0 */\n      0x00\n        /* \"NFTStaking.sol\":6422:6436  stakers[_user] */\n      swap1\n      dup2\n      mstore\n        /* \"NFTStaking.sol\":6422:6429  stakers */\n      0x02\n        /* \"NFTStaking.sol\":6422:6436  stakers[_user] */\n      0x20\n      mstore\n      0x40\n      dup2\n      keccak256\n        /* \"NFTStaking.sol\":6422:6449  stakers[_user].stakedTokens */\n      0x01\n      add\n        /* \"NFTStaking.sol\":6422:6452  stakers[_user].stakedTokens[j] */\n      dup1\n      sload\n        /* \"NFTStaking.sol\":6450:6451  j */\n      dup4\n      swap1\n        /* \"NFTStaking.sol\":6422:6452  stakers[_user].stakedTokens[j] */\n      dup2\n      lt\n      tag_107\n      jumpi\n      tag_107\n      tag_67\n      jump\t// in\n    tag_107:\n      0x00\n      swap2\n      dup3\n      mstore\n      0x20\n      swap1\n      swap2\n      keccak256\n      0x02\n      swap1\n      swap2\n      mul\n      add\n        /* \"NFTStaking.sol\":6422:6459  stakers[_user].stakedTokens[j].staker */\n      sload\n      sub(shl(0xa0, 0x01), 0x01)\n      and\n        /* \"NFTStaking.sol\":6422:6475  stakers[_user].stakedTokens[j].staker != (address(0)) */\n      eq\n        /* \"NFTStaking.sol\":6418:6605  if (stakers[_user].stakedTokens[j].staker != (address(0))) {... */\n      tag_109\n      jumpi\n      sub(shl(0xa0, 0x01), 0x01)\n        /* \"NFTStaking.sol\":6524:6538  stakers[_user] */\n      dup6\n      and\n      0x00\n      swap1\n      dup2\n      mstore\n        /* \"NFTStaking.sol\":6524:6531  stakers */\n      0x02\n        /* \"NFTStaking.sol\":6524:6538  stakers[_user] */\n      0x20\n      mstore\n      0x40\n      swap1\n      keccak256\n        /* \"NFTStaking.sol\":6524:6551  stakers[_user].stakedTokens */\n      0x01\n      add\n        /* \"NFTStaking.sol\":6524:6554  stakers[_user].stakedTokens[j] */\n      dup1\n      sload\n        /* \"NFTStaking.sol\":6552:6553  j */\n      dup3\n      swap1\n        /* \"NFTStaking.sol\":6524:6554  stakers[_user].stakedTokens[j] */\n      dup2\n      lt\n      tag_111\n      jumpi\n      tag_111\n      tag_67\n      jump\t// in\n    tag_111:\n      0x00\n      swap2\n      dup3\n      mstore\n      0x20\n      swap2\n      dup3\n      swap1\n      keccak256\n        /* \"NFTStaking.sol\":6500:6554  _stakedTokens[_index] = stakers[_user].stakedTokens[j] */\n      0x40\n      dup1\n      mload\n      dup1\n      dup3\n      add\n      swap1\n      swap2\n      mstore\n        /* \"NFTStaking.sol\":6524:6554  stakers[_user].stakedTokens[j] */\n      0x02\n      swap1\n      swap3\n      mul\n      add\n        /* \"NFTStaking.sol\":6500:6554  _stakedTokens[_index] = stakers[_user].stakedTokens[j] */\n      dup1\n      sload\n      sub(shl(0xa0, 0x01), 0x01)\n      and\n      dup3\n      mstore\n      0x01\n      add\n      sload\n      swap2\n      dup2\n      add\n      swap2\n      swap1\n      swap2\n      mstore\n        /* \"NFTStaking.sol\":6500:6521  _stakedTokens[_index] */\n      dup4\n      mload\n        /* \"NFTStaking.sol\":6500:6513  _stakedTokens */\n      dup5\n      swap1\n        /* \"NFTStaking.sol\":6514:6520  _index */\n      dup5\n      swap1\n        /* \"NFTStaking.sol\":6500:6521  _stakedTokens[_index] */\n      dup2\n      lt\n      tag_114\n      jumpi\n      tag_114\n      tag_67\n      jump\t// in\n    tag_114:\n      0x20\n      mul\n      0x20\n      add\n      add\n        /* \"NFTStaking.sol\":6500:6554  _stakedTokens[_index] = stakers[_user].stakedTokens[j] */\n      dup2\n      swap1\n      mstore\n      pop\n        /* \"NFTStaking.sol\":6577:6585  _index++ */\n      dup2\n      dup1\n      tag_115\n      swap1\n      tag_71\n      jump\t// in\n    tag_115:\n      swap3\n      pop\n      pop\n        /* \"NFTStaking.sol\":6418:6605  if (stakers[_user].stakedTokens[j].staker != (address(0))) {... */\n    tag_109:\n        /* \"NFTStaking.sol\":6394:6397  j++ */\n      dup1\n      tag_116\n      dup2\n      tag_71\n      jump\t// in\n    tag_116:\n      swap2\n      pop\n      pop\n        /* \"NFTStaking.sol\":6334:6620  for (uint256 j = 0; j < stakers[_user].stakedTokens.length; j++) {... */\n      jump(tag_103)\n    tag_104:\n      pop\n        /* \"NFTStaking.sol\":6643:6656  _stakedTokens */\n      swap1\n      swap4\n        /* \"NFTStaking.sol\":5887:6786  function getStakedTokens(... */\n      swap3\n      pop\n      pop\n      pop\n      jump\t// out\n        /* \"NFTStaking.sol\":6024:6779  if (stakers[_user].amountStaked > 0) {... */\n    tag_95:\n        /* \"NFTStaking.sol\":6747:6767  new StakedToken[](0) */\n      0x40\n      dup1\n      mload\n        /* \"NFTStaking.sol\":6765:6766  0 */\n      0x00\n        /* \"NFTStaking.sol\":6747:6767  new StakedToken[](0) */\n      dup1\n      dup3\n      mstore\n      0x20\n      dup3\n      add\n      swap1\n      swap3\n      mstore\n      swap1\n      jump(tag_120)\n    tag_121:\n      0x40\n      dup1\n      mload\n      dup1\n      dup3\n      add\n      swap1\n      swap2\n      mstore\n      0x00\n      dup1\n      dup3\n      mstore\n      0x20\n      dup3\n      add\n      mstore\n      dup2\n      mstore\n      0x20\n      add\n      swap1\n      0x01\n      swap1\n      sub\n      swap1\n      dup2\n      tag_121\n      jumpi\n      swap1\n      pop\n    tag_120:\n      pop\n        /* \"NFTStaking.sol\":6740:6767  return new StakedToken[](0) */\n      swap3\n        /* \"NFTStaking.sol\":5887:6786  function getStakedTokens(... */\n      swap2\n      pop\n      pop\n      jump\t// out\n        /* \"NFTStaking.sol\":2043:3712  function stake(uint256 _tokenId) external nonReentrant {... */\n    tag_42:\n        /* \"@openzeppelin/contracts/security/ReentrancyGuard.sol\":2261:2282   */\n      tag_124\n        /* \"@openzeppelin/contracts/security/ReentrancyGuard.sol\":2261:2280   */\n      tag_54\n        /* \"@openzeppelin/contracts/security/ReentrancyGuard.sol\":2261:2282   */\n      jump\t// in\n    tag_124:\n        /* \"NFTStaking.sol\":2314:2324  msg.sender */\n      caller\n        /* \"NFTStaking.sol\":2341:2342  0 */\n      0x00\n        /* \"NFTStaking.sol\":2306:2325  stakers[msg.sender] */\n      swap1\n      dup2\n      mstore\n        /* \"NFTStaking.sol\":2306:2313  stakers */\n      0x02\n        /* \"NFTStaking.sol\":2306:2325  stakers[msg.sender] */\n      0x20\n      mstore\n      0x40\n      swap1\n      keccak256\n        /* \"NFTStaking.sol\":2306:2338  stakers[msg.sender].amountStaked */\n      sload\n        /* \"NFTStaking.sol\":2306:2342  stakers[msg.sender].amountStaked > 0 */\n      iszero\n        /* \"NFTStaking.sol\":2302:2479  if (stakers[msg.sender].amountStaked > 0) {... */\n      tag_126\n      jumpi\n        /* \"NFTStaking.sol\":2359:2374  uint256 rewards */\n      0x00\n        /* \"NFTStaking.sol\":2377:2405  calculateRewards(msg.sender) */\n      tag_127\n        /* \"NFTStaking.sol\":2394:2404  msg.sender */\n      caller\n        /* \"NFTStaking.sol\":2377:2393  calculateRewards */\n      tag_86\n        /* \"NFTStaking.sol\":2377:2405  calculateRewards(msg.sender) */\n      jump\t// in\n    tag_127:\n        /* \"NFTStaking.sol\":2428:2438  msg.sender */\n      caller\n        /* \"NFTStaking.sol\":2420:2439  stakers[msg.sender] */\n      0x00\n      swap1\n      dup2\n      mstore\n        /* \"NFTStaking.sol\":2420:2427  stakers */\n      0x02\n        /* \"NFTStaking.sol\":2420:2439  stakers[msg.sender] */\n      0x20\n      mstore\n      0x40\n      dup2\n      keccak256\n        /* \"NFTStaking.sol\":2420:2456  stakers[msg.sender].unclaimedRewards */\n      0x03\n      add\n        /* \"NFTStaking.sol\":2420:2467  stakers[msg.sender].unclaimedRewards += rewards */\n      dup1\n      sload\n        /* \"NFTStaking.sol\":2359:2405  uint256 rewards = calculateRewards(msg.sender) */\n      swap3\n      swap4\n      pop\n      dup4\n      swap3\n        /* \"NFTStaking.sol\":2420:2456  stakers[msg.sender].unclaimedRewards */\n      swap1\n      swap2\n        /* \"NFTStaking.sol\":2420:2439  stakers[msg.sender] */\n      swap1\n        /* \"NFTStaking.sol\":2420:2467  stakers[msg.sender].unclaimedRewards += rewards */\n      tag_128\n      swap1\n        /* \"NFTStaking.sol\":2359:2405  uint256 rewards = calculateRewards(msg.sender) */\n      dup5\n      swap1\n        /* \"NFTStaking.sol\":2420:2467  stakers[msg.sender].unclaimedRewards += rewards */\n      tag_88\n      jump\t// in\n    tag_128:\n      swap1\n      swap2\n      sstore\n      pop\n      pop\n      pop\n        /* \"NFTStaking.sol\":2302:2479  if (stakers[msg.sender].amountStaked > 0) {... */\n    tag_126:\n        /* \"NFTStaking.sol\":2657:2688  nftCollection.ownerOf(_tokenId) */\n      mload(0x40)\n      shl(0xe1, 0x31a9108f)\n      dup2\n      mstore\n      0x04\n      dup2\n      add\n        /* \"#utility.yul\":2648:2673   */\n      dup3\n      swap1\n      mstore\n        /* \"NFTStaking.sol\":2692:2702  msg.sender */\n      caller\n      swap1\n      sub(shl(0xa0, 0x01), 0x01)\n        /* \"NFTStaking.sol\":2657:2670  nftCollection */\n      immutable(\"0x8e8fab5f003314da8d1873ea7720e8d9f47650136d916064d1edb8a11d682624\")\n        /* \"NFTStaking.sol\":2657:2678  nftCollection.ownerOf */\n      and\n      swap1\n      0x6352211e\n      swap1\n        /* \"#utility.yul\":2621:2639   */\n      0x24\n      add\n        /* \"NFTStaking.sol\":2657:2688  nftCollection.ownerOf(_tokenId) */\n      0x20\n      mload(0x40)\n      dup1\n      dup4\n      sub\n      dup2\n      dup7\n      gas\n      staticcall\n      iszero\n      dup1\n      iszero\n      tag_131\n      jumpi\n      returndatasize\n      0x00\n      dup1\n      returndatacopy\n      revert(0x00, returndatasize)\n    tag_131:\n      pop\n      pop\n      pop\n      pop\n      mload(0x40)\n      returndatasize\n      not(0x1f)\n      0x1f\n      dup3\n      add\n      and\n      dup3\n      add\n      dup1\n      0x40\n      mstore\n      pop\n      dup2\n      add\n      swap1\n      tag_132\n      swap2\n      swap1\n      tag_133\n      jump\t// in\n    tag_132:\n      sub(shl(0xa0, 0x01), 0x01)\n        /* \"NFTStaking.sol\":2657:2702  nftCollection.ownerOf(_tokenId) == msg.sender */\n      and\n      eq\n        /* \"NFTStaking.sol\":2635:2754  require(... */\n      tag_134\n      jumpi\n      mload(0x40)\n      shl(0xe5, 0x461bcd)\n      dup2\n      mstore\n        /* \"#utility.yul\":5420:5422   */\n      0x20\n        /* \"NFTStaking.sol\":2635:2754  require(... */\n      0x04\n      dup3\n      add\n        /* \"#utility.yul\":5402:5423   */\n      mstore\n        /* \"#utility.yul\":5459:5461   */\n      0x18\n        /* \"#utility.yul\":5439:5457   */\n      0x24\n      dup3\n      add\n        /* \"#utility.yul\":5432:5462   */\n      mstore\n        /* \"#utility.yul\":5498:5524   */\n      0x596f7520646f6e2774206f776e207468697320746f6b656e0000000000000000\n        /* \"#utility.yul\":5478:5496   */\n      0x44\n      dup3\n      add\n        /* \"#utility.yul\":5471:5525   */\n      mstore\n        /* \"#utility.yul\":5542:5560   */\n      0x64\n      add\n        /* \"NFTStaking.sol\":2635:2754  require(... */\n      tag_57\n        /* \"#utility.yul\":5218:5566   */\n      jump\n        /* \"NFTStaking.sol\":2635:2754  require(... */\n    tag_134:\n        /* \"NFTStaking.sol\":2866:2929  nftCollection.transferFrom(msg.sender, address(this), _tokenId) */\n      mload(0x40)\n      shl(0xe0, 0x23b872dd)\n      dup2\n      mstore\n        /* \"NFTStaking.sol\":2893:2903  msg.sender */\n      caller\n        /* \"NFTStaking.sol\":2866:2929  nftCollection.transferFrom(msg.sender, address(this), _tokenId) */\n      0x04\n      dup3\n      add\n        /* \"#utility.yul\":4200:4234   */\n      mstore\n        /* \"NFTStaking.sol\":2913:2917  this */\n      address\n        /* \"#utility.yul\":4250:4268   */\n      0x24\n      dup3\n      add\n        /* \"#utility.yul\":4243:4286   */\n      mstore\n        /* \"#utility.yul\":4302:4320   */\n      0x44\n      dup2\n      add\n        /* \"#utility.yul\":4295:4329   */\n      dup3\n      swap1\n      mstore\n        /* \"NFTStaking.sol\":2866:2879  nftCollection */\n      immutable(\"0x8e8fab5f003314da8d1873ea7720e8d9f47650136d916064d1edb8a11d682624\")\n      sub(shl(0xa0, 0x01), 0x01)\n        /* \"NFTStaking.sol\":2866:2892  nftCollection.transferFrom */\n      and\n      swap1\n      0x23b872dd\n      swap1\n        /* \"#utility.yul\":4112:4130   */\n      0x64\n      add\n        /* \"NFTStaking.sol\":2866:2929  nftCollection.transferFrom(msg.sender, address(this), _tokenId) */\n      0x00\n      mload(0x40)\n      dup1\n      dup4\n      sub\n      dup2\n      0x00\n      dup8\n      dup1\n      extcodesize\n      iszero\n      dup1\n      iszero\n      tag_138\n      jumpi\n      0x00\n      dup1\n      revert\n    tag_138:\n      pop\n      gas\n      call\n      iszero\n      dup1\n      iszero\n      tag_140\n      jumpi\n      returndatasize\n      0x00\n      dup1\n      returndatacopy\n      revert(0x00, returndatasize)\n    tag_140:\n      pop\n      pop\n        /* \"NFTStaking.sol\":3125:3158  StakedToken(msg.sender, _tokenId) */\n      0x40\n      dup1\n      mload\n      dup1\n      dup3\n      add\n      dup3\n      mstore\n        /* \"NFTStaking.sol\":3137:3147  msg.sender */\n      caller\n        /* \"NFTStaking.sol\":3125:3158  StakedToken(msg.sender, _tokenId) */\n      dup1\n      dup3\n      mstore\n      0x20\n      dup1\n      dup4\n      add\n      dup8\n      dup2\n      mstore\n      0x00\n        /* \"NFTStaking.sol\":3310:3329  stakers[msg.sender] */\n      dup4\n      dup2\n      mstore\n        /* \"NFTStaking.sol\":3310:3317  stakers */\n      0x02\n        /* \"NFTStaking.sol\":3310:3329  stakers[msg.sender] */\n      dup1\n      dup5\n      mstore\n      swap6\n      dup2\n      keccak256\n        /* \"NFTStaking.sol\":3310:3342  stakers[msg.sender].stakedTokens */\n      0x01\n      dup1\n      dup3\n      add\n        /* \"NFTStaking.sol\":3310:3360  stakers[msg.sender].stakedTokens.push(stakedToken) */\n      dup1\n      sload\n      dup1\n      dup4\n      add\n      dup3\n      sstore\n      swap1\n      dup5\n      mstore\n      swap5\n      dup4\n      keccak256\n      dup8\n      mload\n      swap6\n      swap1\n      swap9\n      mul\n      swap1\n      swap8\n      add\n      dup1\n      sload\n      not(sub(shl(0xa0, 0x01), 0x01))\n      and\n      sub(shl(0xa0, 0x01), 0x01)\n      swap1\n      swap6\n      and\n      swap5\n      swap1\n      swap5\n      or\n      dup5\n      sstore\n      swap2\n      mload\n      swap3\n      swap1\n      swap6\n      add\n      swap2\n      swap1\n      swap2\n      sstore\n        /* \"NFTStaking.sol\":3429:3448  stakers[msg.sender] */\n      swap1\n      dup4\n      mstore\n        /* \"NFTStaking.sol\":3429:3463  stakers[msg.sender].amountStaked++ */\n      dup1\n      sload\n        /* \"NFTStaking.sol\":3125:3158  StakedToken(msg.sender, _tokenId) */\n      swap2\n      swap5\n      pop\n        /* \"NFTStaking.sol\":3429:3463  stakers[msg.sender].amountStaked++ */\n      swap1\n      swap3\n      pop\n        /* \"NFTStaking.sol\":3310:3329  stakers[msg.sender] */\n      swap1\n        /* \"NFTStaking.sol\":3429:3463  stakers[msg.sender].amountStaked++ */\n      tag_142\n      dup4\n      tag_71\n      jump\t// in\n    tag_142:\n      swap1\n      swap2\n      sstore\n      pop\n      pop\n      pop\n        /* \"NFTStaking.sol\":3546:3569  stakerAddress[_tokenId] */\n      0x00\n      dup2\n      dup2\n      mstore\n        /* \"NFTStaking.sol\":3546:3559  stakerAddress */\n      0x03\n        /* \"NFTStaking.sol\":3546:3569  stakerAddress[_tokenId] */\n      0x20\n      swap1\n      dup2\n      mstore\n      0x40\n      dup1\n      dup4\n      keccak256\n        /* \"NFTStaking.sol\":3546:3582  stakerAddress[_tokenId] = msg.sender */\n      dup1\n      sload\n      not(sub(shl(0xa0, 0x01), 0x01))\n      and\n        /* \"NFTStaking.sol\":3572:3582  msg.sender */\n      caller\n        /* \"NFTStaking.sol\":3546:3582  stakerAddress[_tokenId] = msg.sender */\n      swap1\n      dup2\n      or\n      swap1\n      swap2\n      sstore\n        /* \"NFTStaking.sol\":3650:3669  stakers[msg.sender] */\n      dup4\n      mstore\n        /* \"NFTStaking.sol\":3650:3657  stakers */\n      0x02\n        /* \"NFTStaking.sol\":3650:3669  stakers[msg.sender] */\n      swap2\n      dup3\n      swap1\n      mstore\n      swap1\n      swap2\n      keccak256\n        /* \"NFTStaking.sol\":3689:3704  block.timestamp */\n      timestamp\n        /* \"NFTStaking.sol\":3650:3686  stakers[msg.sender].timeOfLastUpdate */\n      swap2\n      add\n        /* \"NFTStaking.sol\":3650:3704  stakers[msg.sender].timeOfLastUpdate = block.timestamp */\n      sstore\n        /* \"@openzeppelin/contracts/security/ReentrancyGuard.sol\":2303:2323   */\n      tag_82\n        /* \"@openzeppelin/contracts/security/ReentrancyGuard.sol\":1716:1717   */\n      0x01\n        /* \"@openzeppelin/contracts/security/ReentrancyGuard.sol\":2809:2816   */\n      0x00\n        /* \"@openzeppelin/contracts/security/ReentrancyGuard.sol\":2809:2831   */\n      sstore\n        /* \"@openzeppelin/contracts/security/ReentrancyGuard.sol\":2629:2838   */\n      jump\n        /* \"NFTStaking.sol\":5670:5879  function availableRewards(address _staker) public view returns (uint256) {... */\n    tag_49:\n      sub(shl(0xa0, 0x01), 0x01)\n        /* \"NFTStaking.sol\":5813:5829  stakers[_staker] */\n      dup2\n      and\n        /* \"NFTStaking.sol\":5734:5741  uint256 */\n      0x00\n        /* \"NFTStaking.sol\":5813:5829  stakers[_staker] */\n      swap1\n      dup2\n      mstore\n        /* \"NFTStaking.sol\":5813:5820  stakers */\n      0x02\n        /* \"NFTStaking.sol\":5813:5829  stakers[_staker] */\n      0x20\n      mstore\n      0x40\n      dup2\n      keccak256\n        /* \"NFTStaking.sol\":5813:5846  stakers[_staker].unclaimedRewards */\n      0x03\n      add\n      sload\n        /* \"NFTStaking.sol\":5734:5741  uint256 */\n      dup2\n      swap1\n        /* \"NFTStaking.sol\":5772:5797  calculateRewards(_staker) */\n      tag_145\n        /* \"NFTStaking.sol\":5821:5828  _staker */\n      dup5\n        /* \"NFTStaking.sol\":5772:5788  calculateRewards */\n      tag_86\n        /* \"NFTStaking.sol\":5772:5797  calculateRewards(_staker) */\n      jump\t// in\n    tag_145:\n        /* \"NFTStaking.sol\":5772:5846  calculateRewards(_staker) +... */\n      tag_146\n      swap2\n      swap1\n      tag_88\n      jump\t// in\n    tag_146:\n        /* \"NFTStaking.sol\":5754:5846  uint256 rewards = calculateRewards(_staker) +... */\n      swap4\n        /* \"NFTStaking.sol\":5670:5879  function availableRewards(address _staker) public view returns (uint256) {... */\n      swap3\n      pop\n      pop\n      pop\n      jump\t// out\n        /* \"@openzeppelin/contracts/security/ReentrancyGuard.sol\":2336:2623   */\n    tag_54:\n        /* \"@openzeppelin/contracts/security/ReentrancyGuard.sol\":1759:1760   */\n      0x02\n        /* \"@openzeppelin/contracts/security/ReentrancyGuard.sol\":2468:2475   */\n      sload(0x00)\n        /* \"@openzeppelin/contracts/security/ReentrancyGuard.sol\":2468:2487   */\n      sub\n        /* \"@openzeppelin/contracts/security/ReentrancyGuard.sol\":2460:2523   */\n      tag_148\n      jumpi\n      mload(0x40)\n      shl(0xe5, 0x461bcd)\n      dup2\n      mstore\n        /* \"#utility.yul\":5773:5775   */\n      0x20\n        /* \"@openzeppelin/contracts/security/ReentrancyGuard.sol\":2460:2523   */\n      0x04\n      dup3\n      add\n        /* \"#utility.yul\":5755:5776   */\n      mstore\n        /* \"#utility.yul\":5812:5814   */\n      0x1f\n        /* \"#utility.yul\":5792:5810   */\n      0x24\n      dup3\n      add\n        /* \"#utility.yul\":5785:5815   */\n      mstore\n        /* \"#utility.yul\":5851:5884   */\n      0x5265656e7472616e637947756172643a207265656e7472616e742063616c6c00\n        /* \"#utility.yul\":5831:5849   */\n      0x44\n      dup3\n      add\n        /* \"#utility.yul\":5824:5885   */\n      mstore\n        /* \"#utility.yul\":5902:5920   */\n      0x64\n      add\n        /* \"@openzeppelin/contracts/security/ReentrancyGuard.sol\":2460:2523   */\n      tag_57\n        /* \"#utility.yul\":5571:5926   */\n      jump\n        /* \"@openzeppelin/contracts/security/ReentrancyGuard.sol\":2460:2523   */\n    tag_148:\n        /* \"@openzeppelin/contracts/security/ReentrancyGuard.sol\":1759:1760   */\n      0x02\n        /* \"@openzeppelin/contracts/security/ReentrancyGuard.sol\":2598:2605   */\n      0x00\n        /* \"@openzeppelin/contracts/security/ReentrancyGuard.sol\":2598:2616   */\n      sstore\n        /* \"@openzeppelin/contracts/security/ReentrancyGuard.sol\":2336:2623   */\n      jump\t// out\n        /* \"@openzeppelin/contracts/security/ReentrancyGuard.sol\":2629:2838   */\n    tag_83:\n        /* \"@openzeppelin/contracts/security/ReentrancyGuard.sol\":1716:1717   */\n      0x01\n        /* \"@openzeppelin/contracts/security/ReentrancyGuard.sol\":2809:2816   */\n      0x00\n        /* \"@openzeppelin/contracts/security/ReentrancyGuard.sol\":2809:2831   */\n      sstore\n        /* \"@openzeppelin/contracts/security/ReentrancyGuard.sol\":2629:2838   */\n      jump\t// out\n        /* \"NFTStaking.sol\":5393:5662  function calculateRewards(... */\n    tag_86:\n        /* \"NFTStaking.sol\":5632:5646  rewardsPerHour */\n      sload(0x01)\n      sub(shl(0xa0, 0x01), 0x01)\n        /* \"NFTStaking.sol\":5599:5615  stakers[_staker] */\n      dup3\n      and\n        /* \"NFTStaking.sol\":5475:5491  uint256 _rewards */\n      0x00\n        /* \"NFTStaking.sol\":5599:5615  stakers[_staker] */\n      swap1\n      dup2\n      mstore\n        /* \"NFTStaking.sol\":5599:5606  stakers */\n      0x02\n        /* \"NFTStaking.sol\":5599:5615  stakers[_staker] */\n      0x20\n      dup2\n      swap1\n      mstore\n      0x40\n      dup3\n      keccak256\n        /* \"NFTStaking.sol\":5599:5628  stakers[_staker].amountStaked */\n      dup1\n      sload\n        /* \"NFTStaking.sol\":5545:5578  stakers[_staker].timeOfLastUpdate */\n      swap2\n      add\n      sload\n        /* \"NFTStaking.sol\":5475:5491  uint256 _rewards */\n      swap2\n      swap3\n        /* \"NFTStaking.sol\":5650:5654  3600 */\n      0x0e10\n      swap3\n        /* \"NFTStaking.sol\":5632:5646  rewardsPerHour */\n      swap1\n      swap2\n        /* \"NFTStaking.sol\":5599:5628  stakers[_staker].amountStaked */\n      swap1\n        /* \"NFTStaking.sol\":5527:5578  block.timestamp - stakers[_staker].timeOfLastUpdate */\n      tag_153\n      swap1\n        /* \"NFTStaking.sol\":5527:5542  block.timestamp */\n      timestamp\n        /* \"NFTStaking.sol\":5527:5578  block.timestamp - stakers[_staker].timeOfLastUpdate */\n      tag_154\n      jump\t// in\n    tag_153:\n        /* \"NFTStaking.sol\":5526:5628  (block.timestamp - stakers[_staker].timeOfLastUpdate) *... */\n      tag_155\n      swap2\n      swap1\n      tag_156\n      jump\t// in\n    tag_155:\n        /* \"NFTStaking.sol\":5525:5646  ((block.timestamp - stakers[_staker].timeOfLastUpdate) *... */\n      tag_157\n      swap2\n      swap1\n      tag_156\n      jump\t// in\n    tag_157:\n        /* \"NFTStaking.sol\":5524:5654  (((block.timestamp - stakers[_staker].timeOfLastUpdate) *... */\n      tag_158\n      swap2\n      swap1\n      tag_159\n      jump\t// in\n    tag_158:\n        /* \"NFTStaking.sol\":5504:5654  return... */\n      swap3\n        /* \"NFTStaking.sol\":5393:5662  function calculateRewards(... */\n      swap2\n      pop\n      pop\n      jump\t// out\n        /* \"@openzeppelin/contracts/token/ERC20/utils/SafeERC20.sol\":763:968   */\n    tag_93:\n        /* \"@openzeppelin/contracts/token/ERC20/utils/SafeERC20.sol\":902:960   */\n      0x40\n      dup1\n      mload\n      sub(shl(0xa0, 0x01), 0x01)\n        /* \"#utility.yul\":6651:6706   */\n      dup5\n      and\n        /* \"@openzeppelin/contracts/token/ERC20/utils/SafeERC20.sol\":902:960   */\n      0x24\n      dup3\n      add\n        /* \"#utility.yul\":6633:6707   */\n      mstore\n        /* \"#utility.yul\":6723:6741   */\n      0x44\n      dup1\n      dup3\n      add\n        /* \"#utility.yul\":6716:6750   */\n      dup5\n      swap1\n      mstore\n        /* \"@openzeppelin/contracts/token/ERC20/utils/SafeERC20.sol\":902:960   */\n      dup3\n      mload\n      dup1\n      dup4\n      sub\n      swap1\n      swap2\n      add\n      dup2\n      mstore\n        /* \"#utility.yul\":6606:6624   */\n      0x64\n      swap1\n      swap2\n      add\n        /* \"@openzeppelin/contracts/token/ERC20/utils/SafeERC20.sol\":902:960   */\n      swap1\n      swap2\n      mstore\n      0x20\n      dup2\n      add\n      dup1\n      mload\n      0xffffffffffffffffffffffffffffffffffffffffffffffffffffffff\n      and\n      shl(0xe0, 0xa9059cbb)\n      or\n      swap1\n      mstore\n        /* \"@openzeppelin/contracts/token/ERC20/utils/SafeERC20.sol\":875:961   */\n      tag_161\n      swap1\n        /* \"@openzeppelin/contracts/token/ERC20/utils/SafeERC20.sol\":895:900   */\n      dup5\n      swap1\n        /* \"@openzeppelin/contracts/token/ERC20/utils/SafeERC20.sol\":875:894   */\n      tag_164\n        /* \"@openzeppelin/contracts/token/ERC20/utils/SafeERC20.sol\":875:961   */\n      jump\t// in\n    tag_161:\n        /* \"@openzeppelin/contracts/token/ERC20/utils/SafeERC20.sol\":763:968   */\n      pop\n      pop\n      pop\n      jump\t// out\n        /* \"@openzeppelin/contracts/token/ERC20/utils/SafeERC20.sol\":3747:4453   */\n    tag_164:\n        /* \"@openzeppelin/contracts/token/ERC20/utils/SafeERC20.sol\":4166:4189   */\n      0x00\n        /* \"@openzeppelin/contracts/token/ERC20/utils/SafeERC20.sol\":4192:4261   */\n      tag_166\n        /* \"@openzeppelin/contracts/token/ERC20/utils/SafeERC20.sol\":4220:4224   */\n      dup3\n        /* \"@openzeppelin/contracts/token/ERC20/utils/SafeERC20.sol\":4192:4261   */\n      mload(0x40)\n      dup1\n      0x40\n      add\n      0x40\n      mstore\n      dup1\n      0x20\n      dup2\n      mstore\n      0x20\n      add\n      0x5361666545524332303a206c6f772d6c6576656c2063616c6c206661696c6564\n      dup2\n      mstore\n      pop\n        /* \"@openzeppelin/contracts/token/ERC20/utils/SafeERC20.sol\":4200:4205   */\n      dup6\n      sub(shl(0xa0, 0x01), 0x01)\n        /* \"@openzeppelin/contracts/token/ERC20/utils/SafeERC20.sol\":4192:4219   */\n      and\n      tag_167\n      swap1\n        /* \"@openzeppelin/contracts/token/ERC20/utils/SafeERC20.sol\":4192:4261   */\n      swap3\n      swap2\n      swap1\n      0xffffffff\n      and\n      jump\t// in\n    tag_166:\n        /* \"@openzeppelin/contracts/token/ERC20/utils/SafeERC20.sol\":4275:4292   */\n      dup1\n      mload\n        /* \"@openzeppelin/contracts/token/ERC20/utils/SafeERC20.sol\":4166:4261   */\n      swap1\n      swap2\n      pop\n        /* \"@openzeppelin/contracts/token/ERC20/utils/SafeERC20.sol\":4275:4296   */\n      iszero\n        /* \"@openzeppelin/contracts/token/ERC20/utils/SafeERC20.sol\":4271:4447   */\n      tag_161\n      jumpi\n        /* \"@openzeppelin/contracts/token/ERC20/utils/SafeERC20.sol\":4370:4380   */\n      dup1\n        /* \"@openzeppelin/contracts/token/ERC20/utils/SafeERC20.sol\":4359:4389   */\n      dup1\n      0x20\n      add\n      swap1\n      mload\n      dup2\n      add\n      swap1\n      tag_169\n      swap2\n      swap1\n      tag_170\n      jump\t// in\n    tag_169:\n        /* \"@openzeppelin/contracts/token/ERC20/utils/SafeERC20.sol\":4351:4436   */\n      tag_161\n      jumpi\n      mload(0x40)\n      shl(0xe5, 0x461bcd)\n      dup2\n      mstore\n        /* \"#utility.yul\":7245:7247   */\n      0x20\n        /* \"@openzeppelin/contracts/token/ERC20/utils/SafeERC20.sol\":4351:4436   */\n      0x04\n      dup3\n      add\n        /* \"#utility.yul\":7227:7248   */\n      mstore\n        /* \"#utility.yul\":7284:7286   */\n      0x2a\n        /* \"#utility.yul\":7264:7282   */\n      0x24\n      dup3\n      add\n        /* \"#utility.yul\":7257:7287   */\n      mstore\n        /* \"#utility.yul\":7323:7357   */\n      0x5361666545524332303a204552433230206f7065726174696f6e20646964206e\n        /* \"#utility.yul\":7303:7321   */\n      0x44\n      dup3\n      add\n        /* \"#utility.yul\":7296:7358   */\n      mstore\n        /* \"#utility.yul\":7394:7406   */\n      0x6f74207375636365656400000000000000000000000000000000000000000000\n        /* \"#utility.yul\":7374:7392   */\n      0x64\n      dup3\n      add\n        /* \"#utility.yul\":7367:7407   */\n      mstore\n        /* \"#utility.yul\":7424:7443   */\n      0x84\n      add\n        /* \"@openzeppelin/contracts/token/ERC20/utils/SafeERC20.sol\":4351:4436   */\n      tag_57\n        /* \"#utility.yul\":7043:7449   */\n      jump\n        /* \"@openzeppelin/contracts/utils/Address.sol\":3873:4096   */\n    tag_167:\n        /* \"@openzeppelin/contracts/utils/Address.sol\":4006:4018   */\n      0x60\n        /* \"@openzeppelin/contracts/utils/Address.sol\":4037:4089   */\n      tag_175\n        /* \"@openzeppelin/contracts/utils/Address.sol\":4059:4065   */\n      dup5\n        /* \"@openzeppelin/contracts/utils/Address.sol\":4067:4071   */\n      dup5\n        /* \"@openzeppelin/contracts/utils/Address.sol\":4073:4074   */\n      0x00\n        /* \"@openzeppelin/contracts/utils/Address.sol\":4076:4088   */\n      dup6\n        /* \"@openzeppelin/contracts/utils/Address.sol\":4037:4058   */\n      tag_176\n        /* \"@openzeppelin/contracts/utils/Address.sol\":4037:4089   */\n      jump\t// in\n    tag_175:\n        /* \"@openzeppelin/contracts/utils/Address.sol\":4030:4089   */\n      swap5\n        /* \"@openzeppelin/contracts/utils/Address.sol\":3873:4096   */\n      swap4\n      pop\n      pop\n      pop\n      pop\n      jump\t// out\n        /* \"@openzeppelin/contracts/utils/Address.sol\":4960:5406   */\n    tag_176:\n        /* \"@openzeppelin/contracts/utils/Address.sol\":5125:5137   */\n      0x60\n        /* \"@openzeppelin/contracts/utils/Address.sol\":5182:5187   */\n      dup3\n        /* \"@openzeppelin/contracts/utils/Address.sol\":5157:5178   */\n      selfbalance\n        /* \"@openzeppelin/contracts/utils/Address.sol\":5157:5187   */\n      lt\n      iszero\n        /* \"@openzeppelin/contracts/utils/Address.sol\":5149:5230   */\n      tag_178\n      jumpi\n      mload(0x40)\n      shl(0xe5, 0x461bcd)\n      dup2\n      mstore\n        /* \"#utility.yul\":7656:7658   */\n      0x20\n        /* \"@openzeppelin/contracts/utils/Address.sol\":5149:5230   */\n      0x04\n      dup3\n      add\n        /* \"#utility.yul\":7638:7659   */\n      mstore\n        /* \"#utility.yul\":7695:7697   */\n      0x26\n        /* \"#utility.yul\":7675:7693   */\n      0x24\n      dup3\n      add\n        /* \"#utility.yul\":7668:7698   */\n      mstore\n        /* \"#utility.yul\":7734:7768   */\n      0x416464726573733a20696e73756666696369656e742062616c616e636520666f\n        /* \"#utility.yul\":7714:7732   */\n      0x44\n      dup3\n      add\n        /* \"#utility.yul\":7707:7769   */\n      mstore\n        /* \"#utility.yul\":7805:7813   */\n      0x722063616c6c0000000000000000000000000000000000000000000000000000\n        /* \"#utility.yul\":7785:7803   */\n      0x64\n      dup3\n      add\n        /* \"#utility.yul\":7778:7814   */\n      mstore\n        /* \"#utility.yul\":7831:7850   */\n      0x84\n      add\n        /* \"@openzeppelin/contracts/utils/Address.sol\":5149:5230   */\n      tag_57\n        /* \"#utility.yul\":7454:7856   */\n      jump\n        /* \"@openzeppelin/contracts/utils/Address.sol\":5149:5230   */\n    tag_178:\n        /* \"@openzeppelin/contracts/utils/Address.sol\":5241:5253   */\n      0x00\n        /* \"@openzeppelin/contracts/utils/Address.sol\":5255:5278   */\n      dup1\n        /* \"@openzeppelin/contracts/utils/Address.sol\":5282:5288   */\n      dup7\n      sub(shl(0xa0, 0x01), 0x01)\n        /* \"@openzeppelin/contracts/utils/Address.sol\":5282:5293   */\n      and\n        /* \"@openzeppelin/contracts/utils/Address.sol\":5301:5306   */\n      dup6\n        /* \"@openzeppelin/contracts/utils/Address.sol\":5308:5312   */\n      dup8\n        /* \"@openzeppelin/contracts/utils/Address.sol\":5282:5313   */\n      mload(0x40)\n      tag_181\n      swap2\n      swap1\n      tag_182\n      jump\t// in\n    tag_181:\n      0x00\n      mload(0x40)\n      dup1\n      dup4\n      sub\n      dup2\n      dup6\n      dup8\n      gas\n      call\n      swap3\n      pop\n      pop\n      pop\n      returndatasize\n      dup1\n      0x00\n      dup2\n      eq\n      tag_185\n      jumpi\n      mload(0x40)\n      swap2\n      pop\n      and(add(returndatasize, 0x3f), not(0x1f))\n      dup3\n      add\n      0x40\n      mstore\n      returndatasize\n      dup3\n      mstore\n      returndatasize\n      0x00\n      0x20\n      dup5\n      add\n      returndatacopy\n      jump(tag_184)\n    tag_185:\n      0x60\n      swap2\n      pop\n    tag_184:\n      pop\n        /* \"@openzeppelin/contracts/utils/Address.sol\":5240:5313   */\n      swap2\n      pop\n      swap2\n      pop\n        /* \"@openzeppelin/contracts/utils/Address.sol\":5330:5399   */\n      tag_186\n        /* \"@openzeppelin/contracts/utils/Address.sol\":5357:5363   */\n      dup8\n        /* \"@openzeppelin/contracts/utils/Address.sol\":5365:5372   */\n      dup4\n        /* \"@openzeppelin/contracts/utils/Address.sol\":5374:5384   */\n      dup4\n        /* \"@openzeppelin/contracts/utils/Address.sol\":5386:5398   */\n      dup8\n        /* \"@openzeppelin/contracts/utils/Address.sol\":5330:5356   */\n      tag_187\n        /* \"@openzeppelin/contracts/utils/Address.sol\":5330:5399   */\n      jump\t// in\n    tag_186:\n        /* \"@openzeppelin/contracts/utils/Address.sol\":5323:5399   */\n      swap8\n        /* \"@openzeppelin/contracts/utils/Address.sol\":4960:5406   */\n      swap7\n      pop\n      pop\n      pop\n      pop\n      pop\n      pop\n      pop\n      jump\t// out\n        /* \"@openzeppelin/contracts/utils/Address.sol\":7466:8094   */\n    tag_187:\n        /* \"@openzeppelin/contracts/utils/Address.sol\":7646:7658   */\n      0x60\n        /* \"@openzeppelin/contracts/utils/Address.sol\":7674:7681   */\n      dup4\n        /* \"@openzeppelin/contracts/utils/Address.sol\":7670:8088   */\n      iszero\n      tag_189\n      jumpi\n        /* \"@openzeppelin/contracts/utils/Address.sol\":7701:7711   */\n      dup3\n        /* \"@openzeppelin/contracts/utils/Address.sol\":7701:7718   */\n      mload\n        /* \"@openzeppelin/contracts/utils/Address.sol\":7722:7723   */\n      0x00\n        /* \"@openzeppelin/contracts/utils/Address.sol\":7701:7723   */\n      sub\n        /* \"@openzeppelin/contracts/utils/Address.sol\":7697:7983   */\n      tag_193\n      jumpi\n      sub(shl(0xa0, 0x01), 0x01)\n        /* \"@openzeppelin/contracts/utils/Address.sol\":1465:1484   */\n      dup6\n      and\n      extcodesize\n        /* \"@openzeppelin/contracts/utils/Address.sol\":7908:7968   */\n      tag_193\n      jumpi\n      mload(0x40)\n      shl(0xe5, 0x461bcd)\n      dup2\n      mstore\n        /* \"#utility.yul\":8610:8612   */\n      0x20\n        /* \"@openzeppelin/contracts/utils/Address.sol\":7908:7968   */\n      0x04\n      dup3\n      add\n        /* \"#utility.yul\":8592:8613   */\n      mstore\n        /* \"#utility.yul\":8649:8651   */\n      0x1d\n        /* \"#utility.yul\":8629:8647   */\n      0x24\n      dup3\n      add\n        /* \"#utility.yul\":8622:8652   */\n      mstore\n        /* \"#utility.yul\":8688:8719   */\n      0x416464726573733a2063616c6c20746f206e6f6e2d636f6e7472616374000000\n        /* \"#utility.yul\":8668:8686   */\n      0x44\n      dup3\n      add\n        /* \"#utility.yul\":8661:8720   */\n      mstore\n        /* \"#utility.yul\":8737:8755   */\n      0x64\n      add\n        /* \"@openzeppelin/contracts/utils/Address.sol\":7908:7968   */\n      tag_57\n        /* \"#utility.yul\":8408:8761   */\n      jump\n        /* \"@openzeppelin/contracts/utils/Address.sol\":7908:7968   */\n    tag_193:\n      pop\n        /* \"@openzeppelin/contracts/utils/Address.sol\":8003:8013   */\n      dup2\n        /* \"@openzeppelin/contracts/utils/Address.sol\":7996:8013   */\n      jump(tag_175)\n        /* \"@openzeppelin/contracts/utils/Address.sol\":7670:8088   */\n    tag_189:\n        /* \"@openzeppelin/contracts/utils/Address.sol\":8044:8077   */\n      tag_175\n        /* \"@openzeppelin/contracts/utils/Address.sol\":8052:8062   */\n      dup4\n        /* \"@openzeppelin/contracts/utils/Address.sol\":8064:8076   */\n      dup4\n        /* \"@openzeppelin/contracts/utils/Address.sol\":8775:8792   */\n      dup2\n      mload\n        /* \"@openzeppelin/contracts/utils/Address.sol\":8775:8796   */\n      iszero\n        /* \"@openzeppelin/contracts/utils/Address.sol\":8771:9150   */\n      tag_201\n      jumpi\n        /* \"@openzeppelin/contracts/utils/Address.sol\":9003:9013   */\n      dup2\n        /* \"@openzeppelin/contracts/utils/Address.sol\":8997:9014   */\n      mload\n        /* \"@openzeppelin/contracts/utils/Address.sol\":9059:9074   */\n      dup1\n        /* \"@openzeppelin/contracts/utils/Address.sol\":9046:9056   */\n      dup4\n        /* \"@openzeppelin/contracts/utils/Address.sol\":9042:9044   */\n      0x20\n        /* \"@openzeppelin/contracts/utils/Address.sol\":9038:9057   */\n      add\n        /* \"@openzeppelin/contracts/utils/Address.sol\":9031:9075   */\n      revert\n        /* \"@openzeppelin/contracts/utils/Address.sol\":8771:9150   */\n    tag_201:\n        /* \"@openzeppelin/contracts/utils/Address.sol\":9126:9138   */\n      dup1\n        /* \"@openzeppelin/contracts/utils/Address.sol\":9119:9139   */\n      mload(0x40)\n      shl(0xe5, 0x461bcd)\n      dup2\n      mstore\n      0x04\n      add\n      tag_57\n      swap2\n      swap1\n      tag_204\n      jump\t// in\n        /* \"#utility.yul\":14:194   */\n    tag_16:\n        /* \"#utility.yul\":73:79   */\n      0x00\n        /* \"#utility.yul\":126:128   */\n      0x20\n        /* \"#utility.yul\":114:123   */\n      dup3\n        /* \"#utility.yul\":105:112   */\n      dup5\n        /* \"#utility.yul\":101:124   */\n      sub\n        /* \"#utility.yul\":97:129   */\n      slt\n        /* \"#utility.yul\":94:146   */\n      iszero\n      tag_210\n      jumpi\n        /* \"#utility.yul\":142:143   */\n      0x00\n        /* \"#utility.yul\":139:140   */\n      dup1\n        /* \"#utility.yul\":132:144   */\n      revert\n        /* \"#utility.yul\":94:146   */\n    tag_210:\n      pop\n        /* \"#utility.yul\":165:188   */\n      calldataload\n      swap2\n        /* \"#utility.yul\":14:194   */\n      swap1\n      pop\n      jump\t// out\n        /* \"#utility.yul\":199:353   */\n    tag_205:\n      sub(shl(0xa0, 0x01), 0x01)\n        /* \"#utility.yul\":278:283   */\n      dup2\n        /* \"#utility.yul\":274:328   */\n      and\n        /* \"#utility.yul\":267:272   */\n      dup2\n        /* \"#utility.yul\":264:329   */\n      eq\n        /* \"#utility.yul\":254:347   */\n      tag_82\n      jumpi\n        /* \"#utility.yul\":343:344   */\n      0x00\n        /* \"#utility.yul\":340:341   */\n      dup1\n        /* \"#utility.yul\":333:345   */\n      revert\n        /* \"#utility.yul\":358:605   */\n    tag_22:\n        /* \"#utility.yul\":417:423   */\n      0x00\n        /* \"#utility.yul\":470:472   */\n      0x20\n        /* \"#utility.yul\":458:467   */\n      dup3\n        /* \"#utility.yul\":449:456   */\n      dup5\n        /* \"#utility.yul\":445:468   */\n      sub\n        /* \"#utility.yul\":441:473   */\n      slt\n        /* \"#utility.yul\":438:490   */\n      iszero\n      tag_214\n      jumpi\n        /* \"#utility.yul\":486:487   */\n      0x00\n        /* \"#utility.yul\":483:484   */\n      dup1\n        /* \"#utility.yul\":476:488   */\n      revert\n        /* \"#utility.yul\":438:490   */\n    tag_214:\n        /* \"#utility.yul\":525:534   */\n      dup2\n        /* \"#utility.yul\":512:535   */\n      calldataload\n        /* \"#utility.yul\":544:575   */\n      tag_146\n        /* \"#utility.yul\":569:574   */\n      dup2\n        /* \"#utility.yul\":544:575   */\n      tag_205\n      jump\t// in\n        /* \"#utility.yul\":610:1451   */\n    tag_25:\n        /* \"#utility.yul\":835:837   */\n      0x20\n        /* \"#utility.yul\":887:908   */\n      dup1\n      dup3\n      mstore\n        /* \"#utility.yul\":957:970   */\n      dup3\n      mload\n        /* \"#utility.yul\":860:878   */\n      dup3\n      dup3\n      add\n        /* \"#utility.yul\":979:1001   */\n      dup2\n      swap1\n      mstore\n        /* \"#utility.yul\":806:810   */\n      0x00\n      swap2\n        /* \"#utility.yul\":835:837   */\n      swap1\n        /* \"#utility.yul\":1020:1022   */\n      0x40\n      swap1\n        /* \"#utility.yul\":1038:1056   */\n      dup2\n      dup6\n      add\n      swap1\n        /* \"#utility.yul\":1079:1094   */\n      dup7\n      dup5\n      add\n        /* \"#utility.yul\":806:810   */\n      dup6\n        /* \"#utility.yul\":1122:1425   */\n    tag_217:\n        /* \"#utility.yul\":1136:1142   */\n      dup3\n        /* \"#utility.yul\":1133:1134   */\n      dup2\n        /* \"#utility.yul\":1130:1143   */\n      lt\n        /* \"#utility.yul\":1122:1425   */\n      iszero\n      tag_219\n      jumpi\n        /* \"#utility.yul\":1195:1208   */\n      dup2\n      mload\n        /* \"#utility.yul\":1237:1246   */\n      dup1\n      mload\n      sub(shl(0xa0, 0x01), 0x01)\n        /* \"#utility.yul\":1233:1291   */\n      and\n        /* \"#utility.yul\":1221:1292   */\n      dup6\n      mstore\n        /* \"#utility.yul\":1332:1343   */\n      dup7\n      add\n        /* \"#utility.yul\":1326:1344   */\n      mload\n        /* \"#utility.yul\":1312:1324   */\n      dup7\n      dup6\n      add\n        /* \"#utility.yul\":1305:1345   */\n      mstore\n        /* \"#utility.yul\":1365:1377   */\n      swap3\n      dup5\n      add\n      swap3\n        /* \"#utility.yul\":1400:1415   */\n      swap1\n      dup6\n      add\n      swap1\n        /* \"#utility.yul\":1158:1159   */\n      0x01\n        /* \"#utility.yul\":1151:1160   */\n      add\n        /* \"#utility.yul\":1122:1425   */\n      jump(tag_217)\n    tag_219:\n      pop\n        /* \"#utility.yul\":1442:1445   */\n      swap2\n      swap8\n        /* \"#utility.yul\":610:1451   */\n      swap7\n      pop\n      pop\n      pop\n      pop\n      pop\n      pop\n      pop\n      jump\t// out\n        /* \"#utility.yul\":3392:3519   */\n    tag_67:\n        /* \"#utility.yul\":3453:3463   */\n      0x4e487b71\n        /* \"#utility.yul\":3448:3451   */\n      0xe0\n        /* \"#utility.yul\":3444:3464   */\n      shl\n        /* \"#utility.yul\":3441:3442   */\n      0x00\n        /* \"#utility.yul\":3434:3465   */\n      mstore\n        /* \"#utility.yul\":3484:3488   */\n      0x32\n        /* \"#utility.yul\":3481:3482   */\n      0x04\n        /* \"#utility.yul\":3474:3489   */\n      mstore\n        /* \"#utility.yul\":3508:3512   */\n      0x24\n        /* \"#utility.yul\":3505:3506   */\n      0x00\n        /* \"#utility.yul\":3498:3513   */\n      revert\n        /* \"#utility.yul\":3524:3651   */\n    tag_206:\n        /* \"#utility.yul\":3585:3595   */\n      0x4e487b71\n        /* \"#utility.yul\":3580:3583   */\n      0xe0\n        /* \"#utility.yul\":3576:3596   */\n      shl\n        /* \"#utility.yul\":3573:3574   */\n      0x00\n        /* \"#utility.yul\":3566:3597   */\n      mstore\n        /* \"#utility.yul\":3616:3620   */\n      0x11\n        /* \"#utility.yul\":3613:3614   */\n      0x04\n        /* \"#utility.yul\":3606:3621   */\n      mstore\n        /* \"#utility.yul\":3640:3644   */\n      0x24\n        /* \"#utility.yul\":3637:3638   */\n      0x00\n        /* \"#utility.yul\":3630:3645   */\n      revert\n        /* \"#utility.yul\":3656:3791   */\n    tag_71:\n        /* \"#utility.yul\":3695:3698   */\n      0x00\n        /* \"#utility.yul\":3716:3733   */\n      0x01\n      dup3\n      add\n        /* \"#utility.yul\":3713:3756   */\n      tag_231\n      jumpi\n        /* \"#utility.yul\":3736:3754   */\n      tag_231\n      tag_206\n      jump\t// in\n    tag_231:\n      pop\n        /* \"#utility.yul\":3783:3784   */\n      0x01\n        /* \"#utility.yul\":3772:3785   */\n      add\n      swap1\n        /* \"#utility.yul\":3656:3791   */\n      jump\t// out\n        /* \"#utility.yul\":3796:3932   */\n    tag_76:\n        /* \"#utility.yul\":3835:3838   */\n      0x00\n        /* \"#utility.yul\":3863:3868   */\n      dup2\n        /* \"#utility.yul\":3853:3892   */\n      tag_234\n      jumpi\n        /* \"#utility.yul\":3872:3890   */\n      tag_234\n      tag_206\n      jump\t// in\n    tag_234:\n      pop\n      not(0x00)\n        /* \"#utility.yul\":3908:3926   */\n      add\n      swap1\n        /* \"#utility.yul\":3796:3932   */\n      jump\t// out\n        /* \"#utility.yul\":4340:4465   */\n    tag_88:\n        /* \"#utility.yul\":4405:4414   */\n      dup1\n      dup3\n      add\n        /* \"#utility.yul\":4426:4436   */\n      dup1\n      dup3\n      gt\n        /* \"#utility.yul\":4423:4459   */\n      iszero\n      tag_158\n      jumpi\n        /* \"#utility.yul\":4439:4457   */\n      tag_158\n      tag_206\n      jump\t// in\n        /* \"#utility.yul\":4830:4957   */\n    tag_98:\n        /* \"#utility.yul\":4891:4901   */\n      0x4e487b71\n        /* \"#utility.yul\":4886:4889   */\n      0xe0\n        /* \"#utility.yul\":4882:4902   */\n      shl\n        /* \"#utility.yul\":4879:4880   */\n      0x00\n        /* \"#utility.yul\":4872:4903   */\n      mstore\n        /* \"#utility.yul\":4922:4926   */\n      0x41\n        /* \"#utility.yul\":4919:4920   */\n      0x04\n        /* \"#utility.yul\":4912:4927   */\n      mstore\n        /* \"#utility.yul\":4946:4950   */\n      0x24\n        /* \"#utility.yul\":4943:4944   */\n      0x00\n        /* \"#utility.yul\":4936:4951   */\n      revert\n        /* \"#utility.yul\":4962:5213   */\n    tag_133:\n        /* \"#utility.yul\":5032:5038   */\n      0x00\n        /* \"#utility.yul\":5085:5087   */\n      0x20\n        /* \"#utility.yul\":5073:5082   */\n      dup3\n        /* \"#utility.yul\":5064:5071   */\n      dup5\n        /* \"#utility.yul\":5060:5083   */\n      sub\n        /* \"#utility.yul\":5056:5088   */\n      slt\n        /* \"#utility.yul\":5053:5105   */\n      iszero\n      tag_242\n      jumpi\n        /* \"#utility.yul\":5101:5102   */\n      0x00\n        /* \"#utility.yul\":5098:5099   */\n      dup1\n        /* \"#utility.yul\":5091:5103   */\n      revert\n        /* \"#utility.yul\":5053:5105   */\n    tag_242:\n        /* \"#utility.yul\":5133:5142   */\n      dup2\n        /* \"#utility.yul\":5127:5143   */\n      mload\n        /* \"#utility.yul\":5152:5183   */\n      tag_146\n        /* \"#utility.yul\":5177:5182   */\n      dup2\n        /* \"#utility.yul\":5152:5183   */\n      tag_205\n      jump\t// in\n        /* \"#utility.yul\":5931:6059   */\n    tag_154:\n        /* \"#utility.yul\":5998:6007   */\n      dup2\n      dup2\n      sub\n        /* \"#utility.yul\":6019:6030   */\n      dup2\n      dup2\n      gt\n        /* \"#utility.yul\":6016:6053   */\n      iszero\n      tag_158\n      jumpi\n        /* \"#utility.yul\":6033:6051   */\n      tag_158\n      tag_206\n      jump\t// in\n        /* \"#utility.yul\":6064:6232   */\n    tag_156:\n        /* \"#utility.yul\":6137:6146   */\n      dup1\n      dup3\n      mul\n        /* \"#utility.yul\":6168:6177   */\n      dup2\n      iszero\n        /* \"#utility.yul\":6185:6200   */\n      dup3\n      dup3\n      div\n        /* \"#utility.yul\":6179:6201   */\n      dup5\n      eq\n        /* \"#utility.yul\":6165:6202   */\n      or\n        /* \"#utility.yul\":6155:6226   */\n      tag_158\n      jumpi\n        /* \"#utility.yul\":6206:6224   */\n      tag_158\n      tag_206\n      jump\t// in\n        /* \"#utility.yul\":6237:6454   */\n    tag_159:\n        /* \"#utility.yul\":6277:6278   */\n      0x00\n        /* \"#utility.yul\":6303:6304   */\n      dup3\n        /* \"#utility.yul\":6293:6425   */\n      tag_253\n      jumpi\n        /* \"#utility.yul\":6347:6357   */\n      0x4e487b71\n        /* \"#utility.yul\":6342:6345   */\n      0xe0\n        /* \"#utility.yul\":6338:6358   */\n      shl\n        /* \"#utility.yul\":6335:6336   */\n      0x00\n        /* \"#utility.yul\":6328:6359   */\n      mstore\n        /* \"#utility.yul\":6382:6386   */\n      0x12\n        /* \"#utility.yul\":6379:6380   */\n      0x04\n        /* \"#utility.yul\":6372:6387   */\n      mstore\n        /* \"#utility.yul\":6410:6414   */\n      0x24\n        /* \"#utility.yul\":6407:6408   */\n      0x00\n        /* \"#utility.yul\":6400:6415   */\n      revert\n        /* \"#utility.yul\":6293:6425   */\n    tag_253:\n      pop\n        /* \"#utility.yul\":6439:6448   */\n      div\n      swap1\n        /* \"#utility.yul\":6237:6454   */\n      jump\t// out\n        /* \"#utility.yul\":6761:7038   */\n    tag_170:\n        /* \"#utility.yul\":6828:6834   */\n      0x00\n        /* \"#utility.yul\":6881:6883   */\n      0x20\n        /* \"#utility.yul\":6869:6878   */\n      dup3\n        /* \"#utility.yul\":6860:6867   */\n      dup5\n        /* \"#utility.yul\":6856:6879   */\n      sub\n        /* \"#utility.yul\":6852:6884   */\n      slt\n        /* \"#utility.yul\":6849:6901   */\n      iszero\n      tag_256\n      jumpi\n        /* \"#utility.yul\":6897:6898   */\n      0x00\n        /* \"#utility.yul\":6894:6895   */\n      dup1\n        /* \"#utility.yul\":6887:6899   */\n      revert\n        /* \"#utility.yul\":6849:6901   */\n    tag_256:\n        /* \"#utility.yul\":6929:6938   */\n      dup2\n        /* \"#utility.yul\":6923:6939   */\n      mload\n        /* \"#utility.yul\":6982:6987   */\n      dup1\n        /* \"#utility.yul\":6975:6988   */\n      iszero\n        /* \"#utility.yul\":6968:6989   */\n      iszero\n        /* \"#utility.yul\":6961:6966   */\n      dup2\n        /* \"#utility.yul\":6958:6990   */\n      eq\n        /* \"#utility.yul\":6948:7008   */\n      tag_146\n      jumpi\n        /* \"#utility.yul\":7004:7005   */\n      0x00\n        /* \"#utility.yul\":7001:7002   */\n      dup1\n        /* \"#utility.yul\":6994:7006   */\n      revert\n        /* \"#utility.yul\":7861:8111   */\n    tag_207:\n        /* \"#utility.yul\":7946:7947   */\n      0x00\n        /* \"#utility.yul\":7956:8069   */\n    tag_261:\n        /* \"#utility.yul\":7970:7976   */\n      dup4\n        /* \"#utility.yul\":7967:7968   */\n      dup2\n        /* \"#utility.yul\":7964:7977   */\n      lt\n        /* \"#utility.yul\":7956:8069   */\n      iszero\n      tag_263\n      jumpi\n        /* \"#utility.yul\":8046:8057   */\n      dup2\n      dup2\n      add\n        /* \"#utility.yul\":8040:8058   */\n      mload\n        /* \"#utility.yul\":8027:8038   */\n      dup4\n      dup3\n      add\n        /* \"#utility.yul\":8020:8059   */\n      mstore\n        /* \"#utility.yul\":7992:7994   */\n      0x20\n        /* \"#utility.yul\":7985:7995   */\n      add\n        /* \"#utility.yul\":7956:8069   */\n      jump(tag_261)\n    tag_263:\n      pop\n      pop\n        /* \"#utility.yul\":8103:8104   */\n      0x00\n        /* \"#utility.yul\":8085:8101   */\n      swap2\n      add\n        /* \"#utility.yul\":8078:8105   */\n      mstore\n        /* \"#utility.yul\":7861:8111   */\n      jump\t// out\n        /* \"#utility.yul\":8116:8403   */\n    tag_182:\n        /* \"#utility.yul\":8245:8248   */\n      0x00\n        /* \"#utility.yul\":8283:8289   */\n      dup3\n        /* \"#utility.yul\":8277:8290   */\n      mload\n        /* \"#utility.yul\":8299:8365   */\n      tag_265\n        /* \"#utility.yul\":8358:8364   */\n      dup2\n        /* \"#utility.yul\":8353:8356   */\n      dup5\n        /* \"#utility.yul\":8346:8350   */\n      0x20\n        /* \"#utility.yul\":8338:8344   */\n      dup8\n        /* \"#utility.yul\":8334:8351   */\n      add\n        /* \"#utility.yul\":8299:8365   */\n      tag_207\n      jump\t// in\n    tag_265:\n        /* \"#utility.yul\":8381:8397   */\n      swap2\n      swap1\n      swap2\n      add\n      swap3\n        /* \"#utility.yul\":8116:8403   */\n      swap2\n      pop\n      pop\n      jump\t// out\n        /* \"#utility.yul\":8766:9162   */\n    tag_204:\n        /* \"#utility.yul\":8915:8917   */\n      0x20\n        /* \"#utility.yul\":8904:8913   */\n      dup2\n        /* \"#utility.yul\":8897:8918   */\n      mstore\n        /* \"#utility.yul\":8878:8882   */\n      0x00\n        /* \"#utility.yul\":8947:8953   */\n      dup3\n        /* \"#utility.yul\":8941:8954   */\n      mload\n        /* \"#utility.yul\":8990:8996   */\n      dup1\n        /* \"#utility.yul\":8985:8987   */\n      0x20\n        /* \"#utility.yul\":8974:8983   */\n      dup5\n        /* \"#utility.yul\":8970:8988   */\n      add\n        /* \"#utility.yul\":8963:8997   */\n      mstore\n        /* \"#utility.yul\":9006:9085   */\n      tag_268\n        /* \"#utility.yul\":9078:9084   */\n      dup2\n        /* \"#utility.yul\":9073:9075   */\n      0x40\n        /* \"#utility.yul\":9062:9071   */\n      dup6\n        /* \"#utility.yul\":9058:9076   */\n      add\n        /* \"#utility.yul\":9053:9055   */\n      0x20\n        /* \"#utility.yul\":9045:9051   */\n      dup8\n        /* \"#utility.yul\":9041:9056   */\n      add\n        /* \"#utility.yul\":9006:9085   */\n      tag_207\n      jump\t// in\n    tag_268:\n        /* \"#utility.yul\":9146:9148   */\n      0x1f\n        /* \"#utility.yul\":9125:9140   */\n      add\n      not(0x1f)\n        /* \"#utility.yul\":9121:9150   */\n      and\n        /* \"#utility.yul\":9106:9151   */\n      swap2\n      swap1\n      swap2\n      add\n        /* \"#utility.yul\":9153:9155   */\n      0x40\n        /* \"#utility.yul\":9102:9156   */\n      add\n      swap3\n        /* \"#utility.yul\":8766:9162   */\n      swap2\n      pop\n      pop\n      jump\t// out\n\n    auxdata: 0xa26469706673582212204f10db7ad246d2e755dce2a64adcad7309849e7f5fbd8ec6834d43b30c19515664736f6c63430008110033\n}\n",
    "bytecode": {
      "linkReferences": {},
      "object": "60c0604052606460015534801561001557600080fd5b506040516110d83803806110d883398101604081905261003491610068565b60016000556001600160a01b0391821660a052166080526100a2565b6001600160a01b038116811461006557600080fd5b50565b6000806040838503121561007b57600080fd5b825161008681610050565b602084015190925061009781610050565b809150509250929050565b60805160a051610ff66100e26000396000818160f3015281816103f4015281816107b001526108930152600081816101b701526105110152610ff66000f3fe608060405234801561001057600080fd5b50600436106100a35760003560e01c80639168ae7211610076578063a694fc3a1161005b578063a694fc3a1461019f578063d1af0c7d146101b2578063f854a27f146101d957600080fd5b80639168ae721461012d578063940670451461017657600080fd5b80632e1a7d4d146100a8578063372500ab146100bd57806363c28db1146100c55780636588103b146100ee575b600080fd5b6100bb6100b6366004610d9a565b6101fa565b005b6100bb610474565b6100d86100d3366004610dc8565b610540565b6040516100e59190610de5565b60405180910390f35b6101157f000000000000000000000000000000000000000000000000000000000000000081565b6040516001600160a01b0390911681526020016100e5565b61015b61013b366004610dc8565b600260208190526000918252604090912080549181015460039091015483565b604080519384526020840192909252908201526060016100e5565b610115610184366004610d9a565b6003602052600090815260409020546001600160a01b031681565b6100bb6101ad366004610d9a565b61073a565b6101157f000000000000000000000000000000000000000000000000000000000000000081565b6101ec6101e7366004610dc8565b6109b1565b6040519081526020016100e5565b6102026109e9565b336000908152600260205260409020546102635760405162461bcd60e51b815260206004820152601d60248201527f596f7520646f6e2774206861766520746865204e4654207374616b656400000060448201526064015b60405180910390fd5b6000818152600360205260409020546001600160a01b031633146102c95760405162461bcd60e51b815260206004820152601560248201527f596f7520617265206e6f7420746865206f776e65720000000000000000000000604482015260640161025a565b6000805b3360009081526002602052604090206001015481101561033f5733600090815260026020526040902060010180548491908390811061030e5761030e610e3d565b9060005260206000209060020201600101540361032d5780915061033f565b8061033781610e69565b9150506102cd565b5033600090815260026020526040812060010180548390811061036457610364610e3d565b6000918252602080832060029283020180546001600160a01b0319166001600160a01b039590951694909417909355338252909152604081208054916103a983610e82565b90915550506000828152600360205260409081902080546001600160a01b0319169055516323b872dd60e01b8152306004820152336024820152604481018390526001600160a01b037f000000000000000000000000000000000000000000000000000000000000000016906323b872dd90606401600060405180830381600087803b15801561043857600080fd5b505af115801561044c573d6000803e3d6000fd5b505033600090815260026020819052604090912042910155506104719150610a429050565b50565b33600081815260026020526040812060030154909161049290610a49565b61049c9190610e99565b9050600081116104ee5760405162461bcd60e51b815260206004820152601f60248201527f596f7520646f6e27742068617665207265776172647320746f20636c61696d00604482015260640161025a565b3360008181526002602081905260408220429181019190915560030155610471907f00000000000000000000000000000000000000000000000000000000000000006001600160a01b03169083610aa2565b6001600160a01b038116600090815260026020526040902054606090156106f6576001600160a01b03821660009081526002602052604081205467ffffffffffffffff81111561059257610592610eac565b6040519080825280602002602001820160405280156105d757816020015b60408051808201909152600080825260208201528152602001906001900390816105b05790505b5090506000805b6001600160a01b0385166000908152600260205260409020600101548110156106ed576001600160a01b038516600090815260026020526040812060010180548390811061062e5761062e610e3d565b60009182526020909120600290910201546001600160a01b0316146106db576001600160a01b038516600090815260026020526040902060010180548290811061067a5761067a610e3d565b60009182526020918290206040805180820190915260029092020180546001600160a01b03168252600101549181019190915283518490849081106106c1576106c1610e3d565b602002602001018190525081806106d790610e69565b9250505b806106e581610e69565b9150506105de565b50909392505050565b6040805160008082526020820190925290610733565b604080518082019091526000808252602082015281526020019060019003908161070c5790505b5092915050565b6107426109e9565b336000908152600260205260409020541561079057600061076233610a49565b33600090815260026020526040812060030180549293508392909190610789908490610e99565b9091555050505b6040516331a9108f60e11b81526004810182905233906001600160a01b037f00000000000000000000000000000000000000000000000000000000000000001690636352211e90602401602060405180830381865afa1580156107f7573d6000803e3d6000fd5b505050506040513d601f19601f8201168201806040525081019061081b9190610ec2565b6001600160a01b0316146108715760405162461bcd60e51b815260206004820152601860248201527f596f7520646f6e2774206f776e207468697320746f6b656e0000000000000000604482015260640161025a565b6040516323b872dd60e01b8152336004820152306024820152604481018290527f00000000000000000000000000000000000000000000000000000000000000006001600160a01b0316906323b872dd90606401600060405180830381600087803b1580156108df57600080fd5b505af11580156108f3573d6000803e3d6000fd5b50506040805180820182523380825260208083018781526000838152600280845295812060018082018054808301825590845294832087519590980290970180546001600160a01b0319166001600160a01b039095169490941784559151929095019190915590835280549194509092509061096e83610e69565b909155505050600081815260036020908152604080832080546001600160a01b031916339081179091558352600291829052909120429101556104716001600055565b6001600160a01b03811660009081526002602052604081206003015481906109d884610a49565b6109e29190610e99565b9392505050565b600260005403610a3b5760405162461bcd60e51b815260206004820152601f60248201527f5265656e7472616e637947756172643a207265656e7472616e742063616c6c00604482015260640161025a565b6002600055565b6001600055565b6001546001600160a01b0382166000908152600260208190526040822080549101549192610e1092909190610a7e9042610edf565b610a889190610ef2565b610a929190610ef2565b610a9c9190610f09565b92915050565b604080516001600160a01b038416602482015260448082018490528251808303909101815260649091019091526020810180517bffffffffffffffffffffffffffffffffffffffffffffffffffffffff1663a9059cbb60e01b179052610b09908490610b0e565b505050565b6000610b63826040518060400160405280602081526020017f5361666545524332303a206c6f772d6c6576656c2063616c6c206661696c6564815250856001600160a01b0316610bf39092919063ffffffff16565b805190915015610b095780806020019051810190610b819190610f2b565b610b095760405162461bcd60e51b815260206004820152602a60248201527f5361666545524332303a204552433230206f7065726174696f6e20646964206e60448201527f6f74207375636365656400000000000000000000000000000000000000000000606482015260840161025a565b6060610c028484600085610c0a565b949350505050565b606082471015610c825760405162461bcd60e51b815260206004820152602660248201527f416464726573733a20696e73756666696369656e742062616c616e636520666f60448201527f722063616c6c0000000000000000000000000000000000000000000000000000606482015260840161025a565b600080866001600160a01b03168587604051610c9e9190610f71565b60006040518083038185875af1925050503d8060008114610cdb576040519150601f19603f3d011682016040523d82523d6000602084013e610ce0565b606091505b5091509150610cf187838387610cfc565b979650505050505050565b60608315610d6b578251600003610d64576001600160a01b0385163b610d645760405162461bcd60e51b815260206004820152601d60248201527f416464726573733a2063616c6c20746f206e6f6e2d636f6e7472616374000000604482015260640161025a565b5081610c02565b610c028383815115610d805781518083602001fd5b8060405162461bcd60e51b815260040161025a9190610f8d565b600060208284031215610dac57600080fd5b5035919050565b6001600160a01b038116811461047157600080fd5b600060208284031215610dda57600080fd5b81356109e281610db3565b602080825282518282018190526000919060409081850190868401855b82811015610e3057815180516001600160a01b03168552860151868501529284019290850190600101610e02565b5091979650505050505050565b634e487b7160e01b600052603260045260246000fd5b634e487b7160e01b600052601160045260246000fd5b600060018201610e7b57610e7b610e53565b5060010190565b600081610e9157610e91610e53565b506000190190565b80820180821115610a9c57610a9c610e53565b634e487b7160e01b600052604160045260246000fd5b600060208284031215610ed457600080fd5b81516109e281610db3565b81810381811115610a9c57610a9c610e53565b8082028115828204841417610a9c57610a9c610e53565b600082610f2657634e487b7160e01b600052601260045260246000fd5b500490565b600060208284031215610f3d57600080fd5b815180151581146109e257600080fd5b60005b83811015610f68578181015183820152602001610f50565b50506000910152565b60008251610f83818460208701610f4d565b9190910192915050565b6020815260008251806020840152610fac816040850160208701610f4d565b601f01601f1916919091016040019291505056fea26469706673582212204f10db7ad246d2e755dce2a64adcad7309849e7f5fbd8ec6834d43b30c19515664736f6c63430008110033",
      "opcodes": "PUSH1 0xC0 PUSH1 0x40 MSTORE PUSH1 0x64 PUSH1 0x1 SSTORE CALLVALUE DUP1 ISZERO PUSH2 0x15 JUMPI PUSH1 0x0 DUP1 REVERT JUMPDEST POP PUSH1 0x40 MLOAD PUSH2 0x10D8 CODESIZE SUB DUP1 PUSH2 0x10D8 DUP4 CODECOPY DUP2 ADD PUSH1 0x40 DUP2 SWAP1 MSTORE PUSH2 0x34 SWAP2 PUSH2 0x68 JUMP JUMPDEST PUSH1 0x1 PUSH1 0x0 SSTORE PUSH1 0x1 PUSH1 0x1 PUSH1 0xA0 SHL SUB SWAP2 DUP3 AND PUSH1 0xA0 MSTORE AND PUSH1 0x80 MSTORE PUSH2 0xA2 JUMP JUMPDEST PUSH1 0x1 PUSH1 0x1 PUSH1 0xA0 SHL SUB DUP2 AND DUP2 EQ PUSH2 0x65 JUMPI PUSH1 0x0 DUP1 REVERT JUMPDEST POP JUMP JUMPDEST PUSH1 0x0 DUP1 PUSH1 0x40 DUP4 DUP6 SUB SLT ISZERO PUSH2 0x7B JUMPI PUSH1 0x0 DUP1 REVERT JUMPDEST DUP3 MLOAD PUSH2 0x86 DUP2 PUSH2 0x50 JUMP JUMPDEST PUSH1 0x20 DUP5 ADD MLOAD SWAP1 SWAP3 POP PUSH2 0x97 DUP2 PUSH2 0x50 JUMP JUMPDEST DUP1 SWAP2 POP POP SWAP3 POP SWAP3 SWAP1 POP JUMP JUMPDEST PUSH1 0x80 MLOAD PUSH1 0xA0 MLOAD PUSH2 0xFF6 PUSH2 0xE2 PUSH1 0x0 CODECOPY PUSH1 0x0 DUP2 DUP2 PUSH1 0xF3 ADD MSTORE DUP2 DUP2 PUSH2 0x3F4 ADD MSTORE DUP2 DUP2 PUSH2 0x7B0 ADD MSTORE PUSH2 0x893 ADD MSTORE PUSH1 0x0 DUP2 DUP2 PUSH2 0x1B7 ADD MSTORE PUSH2 0x511 ADD MSTORE PUSH2 0xFF6 PUSH1 0x0 RETURN INVALID PUSH1 0x80 PUSH1 0x40 MSTORE CALLVALUE DUP1 ISZERO PUSH2 0x10 JUMPI PUSH1 0x0 DUP1 REVERT JUMPDEST POP PUSH1 0x4 CALLDATASIZE LT PUSH2 0xA3 JUMPI PUSH1 0x0 CALLDATALOAD PUSH1 0xE0 SHR DUP1 PUSH4 0x9168AE72 GT PUSH2 0x76 JUMPI DUP1 PUSH4 0xA694FC3A GT PUSH2 0x5B JUMPI DUP1 PUSH4 0xA694FC3A EQ PUSH2 0x19F JUMPI DUP1 PUSH4 0xD1AF0C7D EQ PUSH2 0x1B2 JUMPI DUP1 PUSH4 0xF854A27F EQ PUSH2 0x1D9 JUMPI PUSH1 0x0 DUP1 REVERT JUMPDEST DUP1 PUSH4 0x9168AE72 EQ PUSH2 0x12D JUMPI DUP1 PUSH4 0x94067045 EQ PUSH2 0x176 JUMPI PUSH1 0x0 DUP1 REVERT JUMPDEST DUP1 PUSH4 0x2E1A7D4D EQ PUSH2 0xA8 JUMPI DUP1 PUSH4 0x372500AB EQ PUSH2 0xBD JUMPI DUP1 PUSH4 0x63C28DB1 EQ PUSH2 0xC5 JUMPI DUP1 PUSH4 0x6588103B EQ PUSH2 0xEE JUMPI JUMPDEST PUSH1 0x0 DUP1 REVERT JUMPDEST PUSH2 0xBB PUSH2 0xB6 CALLDATASIZE PUSH1 0x4 PUSH2 0xD9A JUMP JUMPDEST PUSH2 0x1FA JUMP JUMPDEST STOP JUMPDEST PUSH2 0xBB PUSH2 0x474 JUMP JUMPDEST PUSH2 0xD8 PUSH2 0xD3 CALLDATASIZE PUSH1 0x4 PUSH2 0xDC8 JUMP JUMPDEST PUSH2 0x540 JUMP JUMPDEST PUSH1 0x40 MLOAD PUSH2 0xE5 SWAP2 SWAP1 PUSH2 0xDE5 JUMP JUMPDEST PUSH1 0x40 MLOAD DUP1 SWAP2 SUB SWAP1 RETURN JUMPDEST PUSH2 0x115 PUSH32 0x0 DUP2 JUMP JUMPDEST PUSH1 0x40 MLOAD PUSH1 0x1 PUSH1 0x1 PUSH1 0xA0 SHL SUB SWAP1 SWAP2 AND DUP2 MSTORE PUSH1 0x20 ADD PUSH2 0xE5 JUMP JUMPDEST PUSH2 0x15B PUSH2 0x13B CALLDATASIZE PUSH1 0x4 PUSH2 0xDC8 JUMP JUMPDEST PUSH1 0x2 PUSH1 0x20 DUP2 SWAP1 MSTORE PUSH1 0x0 SWAP2 DUP3 MSTORE PUSH1 0x40 SWAP1 SWAP2 KECCAK256 DUP1 SLOAD SWAP2 DUP2 ADD SLOAD PUSH1 0x3 SWAP1 SWAP2 ADD SLOAD DUP4 JUMP JUMPDEST PUSH1 0x40 DUP1 MLOAD SWAP4 DUP5 MSTORE PUSH1 0x20 DUP5 ADD SWAP3 SWAP1 SWAP3 MSTORE SWAP1 DUP3 ADD MSTORE PUSH1 0x60 ADD PUSH2 0xE5 JUMP JUMPDEST PUSH2 0x115 PUSH2 0x184 CALLDATASIZE PUSH1 0x4 PUSH2 0xD9A JUMP JUMPDEST PUSH1 0x3 PUSH1 0x20 MSTORE PUSH1 0x0 SWAP1 DUP2 MSTORE PUSH1 0x40 SWAP1 KECCAK256 SLOAD PUSH1 0x1 PUSH1 0x1 PUSH1 0xA0 SHL SUB AND DUP2 JUMP JUMPDEST PUSH2 0xBB PUSH2 0x1AD CALLDATASIZE PUSH1 0x4 PUSH2 0xD9A JUMP JUMPDEST PUSH2 0x73A JUMP JUMPDEST PUSH2 0x115 PUSH32 0x0 DUP2 JUMP JUMPDEST PUSH2 0x1EC PUSH2 0x1E7 CALLDATASIZE PUSH1 0x4 PUSH2 0xDC8 JUMP JUMPDEST PUSH2 0x9B1 JUMP JUMPDEST PUSH1 0x40 MLOAD SWAP1 DUP2 MSTORE PUSH1 0x20 ADD PUSH2 0xE5 JUMP JUMPDEST PUSH2 0x202 PUSH2 0x9E9 JUMP JUMPDEST CALLER PUSH1 0x0 SWAP1 DUP2 MSTORE PUSH1 0x2 PUSH1 0x20 MSTORE PUSH1 0x40 SWAP1 KECCAK256 SLOAD PUSH2 0x263 JUMPI PUSH1 0x40 MLOAD PUSH3 0x461BCD PUSH1 0xE5 SHL DUP2 MSTORE PUSH1 0x20 PUSH1 0x4 DUP3 ADD MSTORE PUSH1 0x1D PUSH1 0x24 DUP3 ADD MSTORE PUSH32 0x596F7520646F6E2774206861766520746865204E4654207374616B6564000000 PUSH1 0x44 DUP3 ADD MSTORE PUSH1 0x64 ADD JUMPDEST PUSH1 0x40 MLOAD DUP1 SWAP2 SUB SWAP1 REVERT JUMPDEST PUSH1 0x0 DUP2 DUP2 MSTORE PUSH1 0x3 PUSH1 0x20 MSTORE PUSH1 0x40 SWAP1 KECCAK256 SLOAD PUSH1 0x1 PUSH1 0x1 PUSH1 0xA0 SHL SUB AND CALLER EQ PUSH2 0x2C9 JUMPI PUSH1 0x40 MLOAD PUSH3 0x461BCD PUSH1 0xE5 SHL DUP2 MSTORE PUSH1 0x20 PUSH1 0x4 DUP3 ADD MSTORE PUSH1 0x15 PUSH1 0x24 DUP3 ADD MSTORE PUSH32 0x596F7520617265206E6F7420746865206F776E65720000000000000000000000 PUSH1 0x44 DUP3 ADD MSTORE PUSH1 0x64 ADD PUSH2 0x25A JUMP JUMPDEST PUSH1 0x0 DUP1 JUMPDEST CALLER PUSH1 0x0 SWAP1 DUP2 MSTORE PUSH1 0x2 PUSH1 0x20 MSTORE PUSH1 0x40 SWAP1 KECCAK256 PUSH1 0x1 ADD SLOAD DUP2 LT ISZERO PUSH2 0x33F JUMPI CALLER PUSH1 0x0 SWAP1 DUP2 MSTORE PUSH1 0x2 PUSH1 0x20 MSTORE PUSH1 0x40 SWAP1 KECCAK256 PUSH1 0x1 ADD DUP1 SLOAD DUP5 SWAP2 SWAP1 DUP4 SWAP1 DUP2 LT PUSH2 0x30E JUMPI PUSH2 0x30E PUSH2 0xE3D JUMP JUMPDEST SWAP1 PUSH1 0x0 MSTORE PUSH1 0x20 PUSH1 0x0 KECCAK256 SWAP1 PUSH1 0x2 MUL ADD PUSH1 0x1 ADD SLOAD SUB PUSH2 0x32D JUMPI DUP1 SWAP2 POP PUSH2 0x33F JUMP JUMPDEST DUP1 PUSH2 0x337 DUP2 PUSH2 0xE69 JUMP JUMPDEST SWAP2 POP POP PUSH2 0x2CD JUMP JUMPDEST POP CALLER PUSH1 0x0 SWAP1 DUP2 MSTORE PUSH1 0x2 PUSH1 0x20 MSTORE PUSH1 0x40 DUP2 KECCAK256 PUSH1 0x1 ADD DUP1 SLOAD DUP4 SWAP1 DUP2 LT PUSH2 0x364 JUMPI PUSH2 0x364 PUSH2 0xE3D JUMP JUMPDEST PUSH1 0x0 SWAP2 DUP3 MSTORE PUSH1 0x20 DUP1 DUP4 KECCAK256 PUSH1 0x2 SWAP3 DUP4 MUL ADD DUP1 SLOAD PUSH1 0x1 PUSH1 0x1 PUSH1 0xA0 SHL SUB NOT AND PUSH1 0x1 PUSH1 0x1 PUSH1 0xA0 SHL SUB SWAP6 SWAP1 SWAP6 AND SWAP5 SWAP1 SWAP5 OR SWAP1 SWAP4 SSTORE CALLER DUP3 MSTORE SWAP1 SWAP2 MSTORE PUSH1 0x40 DUP2 KECCAK256 DUP1 SLOAD SWAP2 PUSH2 0x3A9 DUP4 PUSH2 0xE82 JUMP JUMPDEST SWAP1 SWAP2 SSTORE POP POP PUSH1 0x0 DUP3 DUP2 MSTORE PUSH1 0x3 PUSH1 0x20 MSTORE PUSH1 0x40 SWAP1 DUP2 SWAP1 KECCAK256 DUP1 SLOAD PUSH1 0x1 PUSH1 0x1 PUSH1 0xA0 SHL SUB NOT AND SWAP1 SSTORE MLOAD PUSH4 0x23B872DD PUSH1 0xE0 SHL DUP2 MSTORE ADDRESS PUSH1 0x4 DUP3 ADD MSTORE CALLER PUSH1 0x24 DUP3 ADD MSTORE PUSH1 0x44 DUP2 ADD DUP4 SWAP1 MSTORE PUSH1 0x1 PUSH1 0x1 PUSH1 0xA0 SHL SUB PUSH32 0x0 AND SWAP1 PUSH4 0x23B872DD SWAP1 PUSH1 0x64 ADD PUSH1 0x0 PUSH1 0x40 MLOAD DUP1 DUP4 SUB DUP2 PUSH1 0x0 DUP8 DUP1 EXTCODESIZE ISZERO DUP1 ISZERO PUSH2 0x438 JUMPI PUSH1 0x0 DUP1 REVERT JUMPDEST POP GAS CALL ISZERO DUP1 ISZERO PUSH2 0x44C JUMPI RETURNDATASIZE PUSH1 0x0 DUP1 RETURNDATACOPY RETURNDATASIZE PUSH1 0x0 REVERT JUMPDEST POP POP CALLER PUSH1 0x0 SWAP1 DUP2 MSTORE PUSH1 0x2 PUSH1 0x20 DUP2 SWAP1 MSTORE PUSH1 0x40 SWAP1 SWAP2 KECCAK256 TIMESTAMP SWAP2 ADD SSTORE POP PUSH2 0x471 SWAP2 POP PUSH2 0xA42 SWAP1 POP JUMP JUMPDEST POP JUMP JUMPDEST CALLER PUSH1 0x0 DUP2 DUP2 MSTORE PUSH1 0x2 PUSH1 0x20 MSTORE PUSH1 0x40 DUP2 KECCAK256 PUSH1 0x3 ADD SLOAD SWAP1 SWAP2 PUSH2 0x492 SWAP1 PUSH2 0xA49 JUMP JUMPDEST PUSH2 0x49C SWAP2 SWAP1 PUSH2 0xE99 JUMP JUMPDEST SWAP1 POP PUSH1 0x0 DUP2 GT PUSH2 0x4EE JUMPI PUSH1 0x40 MLOAD PUSH3 0x461BCD PUSH1 0xE5 SHL DUP2 MSTORE PUSH1 0x20 PUSH1 0x4 DUP3 ADD MSTORE PUSH1 0x1F PUSH1 0x24 DUP3 ADD MSTORE PUSH32 0x596F7520646F6E27742068617665207265776172647320746F20636C61696D00 PUSH1 0x44 DUP3 ADD MSTORE PUSH1 0x64 ADD PUSH2 0x25A JUMP JUMPDEST CALLER PUSH1 0x0 DUP2 DUP2 MSTORE PUSH1 0x2 PUSH1 0x20 DUP2 SWAP1 MSTORE PUSH1 0x40 DUP3 KECCAK256 TIMESTAMP SWAP2 DUP2 ADD SWAP2 SWAP1 SWAP2 SSTORE PUSH1 0x3 ADD SSTORE PUSH2 0x471 SWAP1 PUSH32 0x0 PUSH1 0x1 PUSH1 0x1 PUSH1 0xA0 SHL SUB AND SWAP1 DUP4 PUSH2 0xAA2 JUMP JUMPDEST PUSH1 0x1 PUSH1 0x1 PUSH1 0xA0 SHL SUB DUP2 AND PUSH1 0x0 SWAP1 DUP2 MSTORE PUSH1 0x2 PUSH1 0x20 MSTORE PUSH1 0x40 SWAP1 KECCAK256 SLOAD PUSH1 0x60 SWAP1 ISZERO PUSH2 0x6F6 JUMPI PUSH1 0x1 PUSH1 0x1 PUSH1 0xA0 SHL SUB DUP3 AND PUSH1 0x0 SWAP1 DUP2 MSTORE PUSH1 0x2 PUSH1 0x20 MSTORE PUSH1 0x40 DUP2 KECCAK256 SLOAD PUSH8 0xFFFFFFFFFFFFFFFF DUP2 GT ISZERO PUSH2 0x592 JUMPI PUSH2 0x592 PUSH2 0xEAC JUMP JUMPDEST PUSH1 0x40 MLOAD SWAP1 DUP1 DUP3 MSTORE DUP1 PUSH1 0x20 MUL PUSH1 0x20 ADD DUP3 ADD PUSH1 0x40 MSTORE DUP1 ISZERO PUSH2 0x5D7 JUMPI DUP2 PUSH1 0x20 ADD JUMPDEST PUSH1 0x40 DUP1 MLOAD DUP1 DUP3 ADD SWAP1 SWAP2 MSTORE PUSH1 0x0 DUP1 DUP3 MSTORE PUSH1 0x20 DUP3 ADD MSTORE DUP2 MSTORE PUSH1 0x20 ADD SWAP1 PUSH1 0x1 SWAP1 SUB SWAP1 DUP2 PUSH2 0x5B0 JUMPI SWAP1 POP JUMPDEST POP SWAP1 POP PUSH1 0x0 DUP1 JUMPDEST PUSH1 0x1 PUSH1 0x1 PUSH1 0xA0 SHL SUB DUP6 AND PUSH1 0x0 SWAP1 DUP2 MSTORE PUSH1 0x2 PUSH1 0x20 MSTORE PUSH1 0x40 SWAP1 KECCAK256 PUSH1 0x1 ADD SLOAD DUP2 LT ISZERO PUSH2 0x6ED JUMPI PUSH1 0x1 PUSH1 0x1 PUSH1 0xA0 SHL SUB DUP6 AND PUSH1 0x0 SWAP1 DUP2 MSTORE PUSH1 0x2 PUSH1 0x20 MSTORE PUSH1 0x40 DUP2 KECCAK256 PUSH1 0x1 ADD DUP1 SLOAD DUP4 SWAP1 DUP2 LT PUSH2 0x62E JUMPI PUSH2 0x62E PUSH2 0xE3D JUMP JUMPDEST PUSH1 0x0 SWAP2 DUP3 MSTORE PUSH1 0x20 SWAP1 SWAP2 KECCAK256 PUSH1 0x2 SWAP1 SWAP2 MUL ADD SLOAD PUSH1 0x1 PUSH1 0x1 PUSH1 0xA0 SHL SUB AND EQ PUSH2 0x6DB JUMPI PUSH1 0x1 PUSH1 0x1 PUSH1 0xA0 SHL SUB DUP6 AND PUSH1 0x0 SWAP1 DUP2 MSTORE PUSH1 0x2 PUSH1 0x20 MSTORE PUSH1 0x40 SWAP1 KECCAK256 PUSH1 0x1 ADD DUP1 SLOAD DUP3 SWAP1 DUP2 LT PUSH2 0x67A JUMPI PUSH2 0x67A PUSH2 0xE3D JUMP JUMPDEST PUSH1 0x0 SWAP2 DUP3 MSTORE PUSH1 0x20 SWAP2 DUP3 SWAP1 KECCAK256 PUSH1 0x40 DUP1 MLOAD DUP1 DUP3 ADD SWAP1 SWAP2 MSTORE PUSH1 0x2 SWAP1 SWAP3 MUL ADD DUP1 SLOAD PUSH1 0x1 PUSH1 0x1 PUSH1 0xA0 SHL SUB AND DUP3 MSTORE PUSH1 0x1 ADD SLOAD SWAP2 DUP2 ADD SWAP2 SWAP1 SWAP2 MSTORE DUP4 MLOAD DUP5 SWAP1 DUP5 SWAP1 DUP2 LT PUSH2 0x6C1 JUMPI PUSH2 0x6C1 PUSH2 0xE3D JUMP JUMPDEST PUSH1 0x20 MUL PUSH1 0x20 ADD ADD DUP2 SWAP1 MSTORE POP DUP2 DUP1 PUSH2 0x6D7 SWAP1 PUSH2 0xE69 JUMP JUMPDEST SWAP3 POP POP JUMPDEST DUP1 PUSH2 0x6E5 DUP2 PUSH2 0xE69 JUMP JUMPDEST SWAP2 POP POP PUSH2 0x5DE JUMP JUMPDEST POP SWAP1 SWAP4 SWAP3 POP POP POP JUMP JUMPDEST PUSH1 0x40 DUP1 MLOAD PUSH1 0x0 DUP1 DUP3 MSTORE PUSH1 0x20 DUP3 ADD SWAP1 SWAP3 MSTORE SWAP1 PUSH2 0x733 JUMP JUMPDEST PUSH1 0x40 DUP1 MLOAD DUP1 DUP3 ADD SWAP1 SWAP2 MSTORE PUSH1 0x0 DUP1 DUP3 MSTORE PUSH1 0x20 DUP3 ADD MSTORE DUP2 MSTORE PUSH1 0x20 ADD SWAP1 PUSH1 0x1 SWAP1 SUB SWAP1 DUP2 PUSH2 0x70C JUMPI SWAP1 POP JUMPDEST POP SWAP3 SWAP2 POP POP JUMP JUMPDEST PUSH2 0x742 PUSH2 0x9E9 JUMP JUMPDEST CALLER PUSH1 0x0 SWAP1 DUP2 MSTORE PUSH1 0x2 PUSH1 0x20 MSTORE PUSH1 0x40 SWAP1 KECCAK256 SLOAD ISZERO PUSH2 0x790 JUMPI PUSH1 0x0 PUSH2 0x762 CALLER PUSH2 0xA49 JUMP JUMPDEST CALLER PUSH1 0x0 SWAP1 DUP2 MSTORE PUSH1 0x2 PUSH1 0x20 MSTORE PUSH1 0x40 DUP2 KECCAK256 PUSH1 0x3 ADD DUP1 SLOAD SWAP3 SWAP4 POP DUP4 SWAP3 SWAP1 SWAP2 SWAP1 PUSH2 0x789 SWAP1 DUP5 SWAP1 PUSH2 0xE99 JUMP JUMPDEST SWAP1 SWAP2 SSTORE POP POP POP JUMPDEST PUSH1 0x40 MLOAD PUSH4 0x31A9108F PUSH1 0xE1 SHL DUP2 MSTORE PUSH1 0x4 DUP2 ADD DUP3 SWAP1 MSTORE CALLER SWAP1 PUSH1 0x1 PUSH1 0x1 PUSH1 0xA0 SHL SUB PUSH32 0x0 AND SWAP1 PUSH4 0x6352211E SWAP1 PUSH1 0x24 ADD PUSH1 0x20 PUSH1 0x40 MLOAD DUP1 DUP4 SUB DUP2 DUP7 GAS STATICCALL ISZERO DUP1 ISZERO PUSH2 0x7F7 JUMPI RETURNDATASIZE PUSH1 0x0 DUP1 RETURNDATACOPY RETURNDATASIZE PUSH1 0x0 REVERT JUMPDEST POP POP POP POP PUSH1 0x40 MLOAD RETURNDATASIZE PUSH1 0x1F NOT PUSH1 0x1F DUP3 ADD AND DUP3 ADD DUP1 PUSH1 0x40 MSTORE POP DUP2 ADD SWAP1 PUSH2 0x81B SWAP2 SWAP1 PUSH2 0xEC2 JUMP JUMPDEST PUSH1 0x1 PUSH1 0x1 PUSH1 0xA0 SHL SUB AND EQ PUSH2 0x871 JUMPI PUSH1 0x40 MLOAD PUSH3 0x461BCD PUSH1 0xE5 SHL DUP2 MSTORE PUSH1 0x20 PUSH1 0x4 DUP3 ADD MSTORE PUSH1 0x18 PUSH1 0x24 DUP3 ADD MSTORE PUSH32 0x596F7520646F6E2774206F776E207468697320746F6B656E0000000000000000 PUSH1 0x44 DUP3 ADD MSTORE PUSH1 0x64 ADD PUSH2 0x25A JUMP JUMPDEST PUSH1 0x40 MLOAD PUSH4 0x23B872DD PUSH1 0xE0 SHL DUP2 MSTORE CALLER PUSH1 0x4 DUP3 ADD MSTORE ADDRESS PUSH1 0x24 DUP3 ADD MSTORE PUSH1 0x44 DUP2 ADD DUP3 SWAP1 MSTORE PUSH32 0x0 PUSH1 0x1 PUSH1 0x1 PUSH1 0xA0 SHL SUB AND SWAP1 PUSH4 0x23B872DD SWAP1 PUSH1 0x64 ADD PUSH1 0x0 PUSH1 0x40 MLOAD DUP1 DUP4 SUB DUP2 PUSH1 0x0 DUP8 DUP1 EXTCODESIZE ISZERO DUP1 ISZERO PUSH2 0x8DF JUMPI PUSH1 0x0 DUP1 REVERT JUMPDEST POP GAS CALL ISZERO DUP1 ISZERO PUSH2 0x8F3 JUMPI RETURNDATASIZE PUSH1 0x0 DUP1 RETURNDATACOPY RETURNDATASIZE PUSH1 0x0 REVERT JUMPDEST POP POP PUSH1 0x40 DUP1 MLOAD DUP1 DUP3 ADD DUP3 MSTORE CALLER DUP1 DUP3 MSTORE PUSH1 0x20 DUP1 DUP4 ADD DUP8 DUP2 MSTORE PUSH1 0x0 DUP4 DUP2 MSTORE PUSH1 0x2 DUP1 DUP5 MSTORE SWAP6 DUP2 KECCAK256 PUSH1 0x1 DUP1 DUP3 ADD DUP1 SLOAD DUP1 DUP4 ADD DUP3 SSTORE SWAP1 DUP5 MSTORE SWAP5 DUP4 KECCAK256 DUP8 MLOAD SWAP6 SWAP1 SWAP9 MUL SWAP1 SWAP8 ADD DUP1 SLOAD PUSH1 0x1 PUSH1 0x1 PUSH1 0xA0 SHL SUB NOT AND PUSH1 0x1 PUSH1 0x1 PUSH1 0xA0 SHL SUB SWAP1 SWAP6 AND SWAP5 SWAP1 SWAP5 OR DUP5 SSTORE SWAP2 MLOAD SWAP3 SWAP1 SWAP6 ADD SWAP2 SWAP1 SWAP2 SSTORE SWAP1 DUP4 MSTORE DUP1 SLOAD SWAP2 SWAP5 POP SWAP1 SWAP3 POP SWAP1 PUSH2 0x96E DUP4 PUSH2 0xE69 JUMP JUMPDEST SWAP1 SWAP2 SSTORE POP POP POP PUSH1 0x0 DUP2 DUP2 MSTORE PUSH1 0x3 PUSH1 0x20 SWAP1 DUP2 MSTORE PUSH1 0x40 DUP1 DUP4 KECCAK256 DUP1 SLOAD PUSH1 0x1 PUSH1 0x1 PUSH1 0xA0 SHL SUB NOT AND CALLER SWAP1 DUP2 OR SWAP1 SWAP2 SSTORE DUP4 MSTORE PUSH1 0x2 SWAP2 DUP3 SWAP1 MSTORE SWAP1 SWAP2 KECCAK256 TIMESTAMP SWAP2 ADD SSTORE PUSH2 0x471 PUSH1 0x1 PUSH1 0x0 SSTORE JUMP JUMPDEST PUSH1 0x1 PUSH1 0x1 PUSH1 0xA0 SHL SUB DUP2 AND PUSH1 0x0 SWAP1 DUP2 MSTORE PUSH1 0x2 PUSH1 0x20 MSTORE PUSH1 0x40 DUP2 KECCAK256 PUSH1 0x3 ADD SLOAD DUP2 SWAP1 PUSH2 0x9D8 DUP5 PUSH2 0xA49 JUMP JUMPDEST PUSH2 0x9E2 SWAP2 SWAP1 PUSH2 0xE99 JUMP JUMPDEST SWAP4 SWAP3 POP POP POP JUMP JUMPDEST PUSH1 0x2 PUSH1 0x0 SLOAD SUB PUSH2 0xA3B JUMPI PUSH1 0x40 MLOAD PUSH3 0x461BCD PUSH1 0xE5 SHL DUP2 MSTORE PUSH1 0x20 PUSH1 0x4 DUP3 ADD MSTORE PUSH1 0x1F PUSH1 0x24 DUP3 ADD MSTORE PUSH32 0x5265656E7472616E637947756172643A207265656E7472616E742063616C6C00 PUSH1 0x44 DUP3 ADD MSTORE PUSH1 0x64 ADD PUSH2 0x25A JUMP JUMPDEST PUSH1 0x2 PUSH1 0x0 SSTORE JUMP JUMPDEST PUSH1 0x1 PUSH1 0x0 SSTORE JUMP JUMPDEST PUSH1 0x1 SLOAD PUSH1 0x1 PUSH1 0x1 PUSH1 0xA0 SHL SUB DUP3 AND PUSH1 0x0 SWAP1 DUP2 MSTORE PUSH1 0x2 PUSH1 0x20 DUP2 SWAP1 MSTORE PUSH1 0x40 DUP3 KECCAK256 DUP1 SLOAD SWAP2 ADD SLOAD SWAP2 SWAP3 PUSH2 0xE10 SWAP3 SWAP1 SWAP2 SWAP1 PUSH2 0xA7E SWAP1 TIMESTAMP PUSH2 0xEDF JUMP JUMPDEST PUSH2 0xA88 SWAP2 SWAP1 PUSH2 0xEF2 JUMP JUMPDEST PUSH2 0xA92 SWAP2 SWAP1 PUSH2 0xEF2 JUMP JUMPDEST PUSH2 0xA9C SWAP2 SWAP1 PUSH2 0xF09 JUMP JUMPDEST SWAP3 SWAP2 POP POP JUMP JUMPDEST PUSH1 0x40 DUP1 MLOAD PUSH1 0x1 PUSH1 0x1 PUSH1 0xA0 SHL SUB DUP5 AND PUSH1 0x24 DUP3 ADD MSTORE PUSH1 0x44 DUP1 DUP3 ADD DUP5 SWAP1 MSTORE DUP3 MLOAD DUP1 DUP4 SUB SWAP1 SWAP2 ADD DUP2 MSTORE PUSH1 0x64 SWAP1 SWAP2 ADD SWAP1 SWAP2 MSTORE PUSH1 0x20 DUP2 ADD DUP1 MLOAD PUSH28 0xFFFFFFFFFFFFFFFFFFFFFFFFFFFFFFFFFFFFFFFFFFFFFFFFFFFFFFFF AND PUSH4 0xA9059CBB PUSH1 0xE0 SHL OR SWAP1 MSTORE PUSH2 0xB09 SWAP1 DUP5 SWAP1 PUSH2 0xB0E JUMP JUMPDEST POP POP POP JUMP JUMPDEST PUSH1 0x0 PUSH2 0xB63 DUP3 PUSH1 0x40 MLOAD DUP1 PUSH1 0x40 ADD PUSH1 0x40 MSTORE DUP1 PUSH1 0x20 DUP2 MSTORE PUSH1 0x20 ADD PUSH32 0x5361666545524332303A206C6F772D6C6576656C2063616C6C206661696C6564 DUP2 MSTORE POP DUP6 PUSH1 0x1 PUSH1 0x1 PUSH1 0xA0 SHL SUB AND PUSH2 0xBF3 SWAP1 SWAP3 SWAP2 SWAP1 PUSH4 0xFFFFFFFF AND JUMP JUMPDEST DUP1 MLOAD SWAP1 SWAP2 POP ISZERO PUSH2 0xB09 JUMPI DUP1 DUP1 PUSH1 0x20 ADD SWAP1 MLOAD DUP2 ADD SWAP1 PUSH2 0xB81 SWAP2 SWAP1 PUSH2 0xF2B JUMP JUMPDEST PUSH2 0xB09 JUMPI PUSH1 0x40 MLOAD PUSH3 0x461BCD PUSH1 0xE5 SHL DUP2 MSTORE PUSH1 0x20 PUSH1 0x4 DUP3 ADD MSTORE PUSH1 0x2A PUSH1 0x24 DUP3 ADD MSTORE PUSH32 0x5361666545524332303A204552433230206F7065726174696F6E20646964206E PUSH1 0x44 DUP3 ADD MSTORE PUSH32 0x6F74207375636365656400000000000000000000000000000000000000000000 PUSH1 0x64 DUP3 ADD MSTORE PUSH1 0x84 ADD PUSH2 0x25A JUMP JUMPDEST PUSH1 0x60 PUSH2 0xC02 DUP5 DUP5 PUSH1 0x0 DUP6 PUSH2 0xC0A JUMP JUMPDEST SWAP5 SWAP4 POP POP POP POP JUMP JUMPDEST PUSH1 0x60 DUP3 SELFBALANCE LT ISZERO PUSH2 0xC82 JUMPI PUSH1 0x40 MLOAD PUSH3 0x461BCD PUSH1 0xE5 SHL DUP2 MSTORE PUSH1 0x20 PUSH1 0x4 DUP3 ADD MSTORE PUSH1 0x26 PUSH1 0x24 DUP3 ADD MSTORE PUSH32 0x416464726573733A20696E73756666696369656E742062616C616E636520666F PUSH1 0x44 DUP3 ADD MSTORE PUSH32 0x722063616C6C0000000000000000000000000000000000000000000000000000 PUSH1 0x64 DUP3 ADD MSTORE PUSH1 0x84 ADD PUSH2 0x25A JUMP JUMPDEST PUSH1 0x0 DUP1 DUP7 PUSH1 0x1 PUSH1 0x1 PUSH1 0xA0 SHL SUB AND DUP6 DUP8 PUSH1 0x40 MLOAD PUSH2 0xC9E SWAP2 SWAP1 PUSH2 0xF71 JUMP JUMPDEST PUSH1 0x0 PUSH1 0x40 MLOAD DUP1 DUP4 SUB DUP2 DUP6 DUP8 GAS CALL SWAP3 POP POP POP RETURNDATASIZE DUP1 PUSH1 0x0 DUP2 EQ PUSH2 0xCDB JUMPI PUSH1 0x40 MLOAD SWAP2 POP PUSH1 0x1F NOT PUSH1 0x3F RETURNDATASIZE ADD AND DUP3 ADD PUSH1 0x40 MSTORE RETURNDATASIZE DUP3 MSTORE RETURNDATASIZE PUSH1 0x0 PUSH1 0x20 DUP5 ADD RETURNDATACOPY PUSH2 0xCE0 JUMP JUMPDEST PUSH1 0x60 SWAP2 POP JUMPDEST POP SWAP2 POP SWAP2 POP PUSH2 0xCF1 DUP8 DUP4 DUP4 DUP8 PUSH2 0xCFC JUMP JUMPDEST SWAP8 SWAP7 POP POP POP POP POP POP POP JUMP JUMPDEST PUSH1 0x60 DUP4 ISZERO PUSH2 0xD6B JUMPI DUP3 MLOAD PUSH1 0x0 SUB PUSH2 0xD64 JUMPI PUSH1 0x1 PUSH1 0x1 PUSH1 0xA0 SHL SUB DUP6 AND EXTCODESIZE PUSH2 0xD64 JUMPI PUSH1 0x40 MLOAD PUSH3 0x461BCD PUSH1 0xE5 SHL DUP2 MSTORE PUSH1 0x20 PUSH1 0x4 DUP3 ADD MSTORE PUSH1 0x1D PUSH1 0x24 DUP3 ADD MSTORE PUSH32 0x416464726573733A2063616C6C20746F206E6F6E2D636F6E7472616374000000 PUSH1 0x44 DUP3 ADD MSTORE PUSH1 0x64 ADD PUSH2 0x25A JUMP JUMPDEST POP DUP2 PUSH2 0xC02 JUMP JUMPDEST PUSH2 0xC02 DUP4 DUP4 DUP2 MLOAD ISZERO PUSH2 0xD80 JUMPI DUP2 MLOAD DUP1 DUP4 PUSH1 0x20 ADD REVERT JUMPDEST DUP1 PUSH1 0x40 MLOAD PUSH3 0x461BCD PUSH1 0xE5 SHL DUP2 MSTORE PUSH1 0x4 ADD PUSH2 0x25A SWAP2 SWAP1 PUSH2 0xF8D JUMP JUMPDEST PUSH1 0x0 PUSH1 0x20 DUP3 DUP5 SUB SLT ISZERO PUSH2 0xDAC JUMPI PUSH1 0x0 DUP1 REVERT JUMPDEST POP CALLDATALOAD SWAP2 SWAP1 POP JUMP JUMPDEST PUSH1 0x1 PUSH1 0x1 PUSH1 0xA0 SHL SUB DUP2 AND DUP2 EQ PUSH2 0x471 JUMPI PUSH1 0x0 DUP1 REVERT JUMPDEST PUSH1 0x0 PUSH1 0x20 DUP3 DUP5 SUB SLT ISZERO PUSH2 0xDDA JUMPI PUSH1 0x0 DUP1 REVERT JUMPDEST DUP2 CALLDATALOAD PUSH2 0x9E2 DUP2 PUSH2 0xDB3 JUMP JUMPDEST PUSH1 0x20 DUP1 DUP3 MSTORE DUP3 MLOAD DUP3 DUP3 ADD DUP2 SWAP1 MSTORE PUSH1 0x0 SWAP2 SWAP1 PUSH1 0x40 SWAP1 DUP2 DUP6 ADD SWAP1 DUP7 DUP5 ADD DUP6 JUMPDEST DUP3 DUP2 LT ISZERO PUSH2 0xE30 JUMPI DUP2 MLOAD DUP1 MLOAD PUSH1 0x1 PUSH1 0x1 PUSH1 0xA0 SHL SUB AND DUP6 MSTORE DUP7 ADD MLOAD DUP7 DUP6 ADD MSTORE SWAP3 DUP5 ADD SWAP3 SWAP1 DUP6 ADD SWAP1 PUSH1 0x1 ADD PUSH2 0xE02 JUMP JUMPDEST POP SWAP2 SWAP8 SWAP7 POP POP POP POP POP POP POP JUMP JUMPDEST PUSH4 0x4E487B71 PUSH1 0xE0 SHL PUSH1 0x0 MSTORE PUSH1 0x32 PUSH1 0x4 MSTORE PUSH1 0x24 PUSH1 0x0 REVERT JUMPDEST PUSH4 0x4E487B71 PUSH1 0xE0 SHL PUSH1 0x0 MSTORE PUSH1 0x11 PUSH1 0x4 MSTORE PUSH1 0x24 PUSH1 0x0 REVERT JUMPDEST PUSH1 0x0 PUSH1 0x1 DUP3 ADD PUSH2 0xE7B JUMPI PUSH2 0xE7B PUSH2 0xE53 JUMP JUMPDEST POP PUSH1 0x1 ADD SWAP1 JUMP JUMPDEST PUSH1 0x0 DUP2 PUSH2 0xE91 JUMPI PUSH2 0xE91 PUSH2 0xE53 JUMP JUMPDEST POP PUSH1 0x0 NOT ADD SWAP1 JUMP JUMPDEST DUP1 DUP3 ADD DUP1 DUP3 GT ISZERO PUSH2 0xA9C JUMPI PUSH2 0xA9C PUSH2 0xE53 JUMP JUMPDEST PUSH4 0x4E487B71 PUSH1 0xE0 SHL PUSH1 0x0 MSTORE PUSH1 0x41 PUSH1 0x4 MSTORE PUSH1 0x24 PUSH1 0x0 REVERT JUMPDEST PUSH1 0x0 PUSH1 0x20 DUP3 DUP5 SUB SLT ISZERO PUSH2 0xED4 JUMPI PUSH1 0x0 DUP1 REVERT JUMPDEST DUP2 MLOAD PUSH2 0x9E2 DUP2 PUSH2 0xDB3 JUMP JUMPDEST DUP2 DUP2 SUB DUP2 DUP2 GT ISZERO PUSH2 0xA9C JUMPI PUSH2 0xA9C PUSH2 0xE53 JUMP JUMPDEST DUP1 DUP3 MUL DUP2 ISZERO DUP3 DUP3 DIV DUP5 EQ OR PUSH2 0xA9C JUMPI PUSH2 0xA9C PUSH2 0xE53 JUMP JUMPDEST PUSH1 0x0 DUP3 PUSH2 0xF26 JUMPI PUSH4 0x4E487B71 PUSH1 0xE0 SHL PUSH1 0x0 MSTORE PUSH1 0x12 PUSH1 0x4 MSTORE PUSH1 0x24 PUSH1 0x0 REVERT JUMPDEST POP DIV SWAP1 JUMP JUMPDEST PUSH1 0x0 PUSH1 0x20 DUP3 DUP5 SUB SLT ISZERO PUSH2 0xF3D JUMPI PUSH1 0x0 DUP1 REVERT JUMPDEST DUP2 MLOAD DUP1 ISZERO ISZERO DUP2 EQ PUSH2 0x9E2 JUMPI PUSH1 0x0 DUP1 REVERT JUMPDEST PUSH1 0x0 JUMPDEST DUP4 DUP2 LT ISZERO PUSH2 0xF68 JUMPI DUP2 DUP2 ADD MLOAD DUP4 DUP3 ADD MSTORE PUSH1 0x20 ADD PUSH2 0xF50 JUMP JUMPDEST POP POP PUSH1 0x0 SWAP2 ADD MSTORE JUMP JUMPDEST PUSH1 0x0 DUP3 MLOAD PUSH2 0xF83 DUP2 DUP5 PUSH1 0x20 DUP8 ADD PUSH2 0xF4D JUMP JUMPDEST SWAP2 SWAP1 SWAP2 ADD SWAP3 SWAP2 POP POP JUMP JUMPDEST PUSH1 0x20 DUP2 MSTORE PUSH1 0x0 DUP3 MLOAD DUP1 PUSH1 0x20 DUP5 ADD MSTORE PUSH2 0xFAC DUP2 PUSH1 0x40 DUP6 ADD PUSH1 0x20 DUP8 ADD PUSH2 0xF4D JUMP JUMPDEST PUSH1 0x1F ADD PUSH1 0x1F NOT AND SWAP2 SWAP1 SWAP2 ADD PUSH1 0x40 ADD SWAP3 SWAP2 POP POP JUMP INVALID LOG2 PUSH5 0x6970667358 0x22 SLT KECCAK256 0x4F LT 0xDB PUSH27 0xD246D2E755DCE2A64ADCAD7309849E7F5FBD8EC6834D43B30C1951 JUMP PUSH5 0x736F6C6343 STOP ADDMOD GT STOP CALLER "
    },
    "gasEstimates": {
      "creation": {
        "codeDepositCost": "817200",
        "executionCost": "infinite",
        "totalCost": "infinite"
      },
      "external": {
        "availableRewards(address)": "infinite",
        "claimRewards()": "infinite",
        "getStakedTokens(address)": "infinite",
        "nftCollection()": "infinite",
        "rewardsToken()": "infinite",
        "stake(uint256)": "infinite",
        "stakerAddress(uint256)": "2522",
        "stakers(address)": "6811",
        "withdraw(uint256)": "infinite"
      },
      "internal": {
        "calculateRewards(address)": "infinite"
      }
    },
    "methodIdentifiers": {
      "availableRewards(address)": "f854a27f",
      "claimRewards()": "372500ab",
      "getStakedTokens(address)": "63c28db1",
      "nftCollection()": "6588103b",
      "rewardsToken()": "d1af0c7d",
      "stake(uint256)": "a694fc3a",
      "stakerAddress(uint256)": "94067045",
      "stakers(address)": "9168ae72",
      "withdraw(uint256)": "2e1a7d4d"
    }
  },
  "storageLayout": {
    "storage": [
      {
        "astId": 479,
        "contract": "NFTStaking.sol:NFTStaking",
        "label": "_status",
        "offset": 0,
        "slot": "0",
        "type": "t_uint256"
      },
      {
        "astId": 54,
        "contract": "NFTStaking.sol:NFTStaking",
        "label": "rewardsPerHour",
        "offset": 0,
        "slot": "1",
        "type": "t_uint256"
      },
      {
        "astId": 59,
        "contract": "NFTStaking.sol:NFTStaking",
        "label": "stakers",
        "offset": 0,
        "slot": "2",
        "type": "t_mapping(t_address,t_struct(Staker)51_storage)"
      },
      {
        "astId": 63,
        "contract": "NFTStaking.sol:NFTStaking",
        "label": "stakerAddress",
        "offset": 0,
        "slot": "3",
        "type": "t_mapping(t_uint256,t_address)"
      }
    ],
    "types": {
      "t_address": {
        "encoding": "inplace",
        "label": "address",
        "numberOfBytes": "20"
      },
      "t_array(t_struct(StakedToken)40_storage)dyn_storage": {
        "base": "t_struct(StakedToken)40_storage",
        "encoding": "dynamic_array",
        "label": "struct NFTStaking.StakedToken[]",
        "numberOfBytes": "32"
      },
      "t_mapping(t_address,t_struct(Staker)51_storage)": {
        "encoding": "mapping",
        "key": "t_address",
        "label": "mapping(address => struct NFTStaking.Staker)",
        "numberOfBytes": "32",
        "value": "t_struct(Staker)51_storage"
      },
      "t_mapping(t_uint256,t_address)": {
        "encoding": "mapping",
        "key": "t_uint256",
        "label": "mapping(uint256 => address)",
        "numberOfBytes": "32",
        "value": "t_address"
      },
      "t_struct(StakedToken)40_storage": {
        "encoding": "inplace",
        "label": "struct NFTStaking.StakedToken",
        "members": [
          {
            "astId": 37,
            "contract": "NFTStaking.sol:NFTStaking",
            "label": "staker",
            "offset": 0,
            "slot": "0",
            "type": "t_address"
          },
          {
            "astId": 39,
            "contract": "NFTStaking.sol:NFTStaking",
            "label": "tokenId",
            "offset": 0,
            "slot": "1",
            "type": "t_uint256"
          }
        ],
        "numberOfBytes": "64"
      },
      "t_struct(Staker)51_storage": {
        "encoding": "inplace",
        "label": "struct NFTStaking.Staker",
        "members": [
          {
            "astId": 42,
            "contract": "NFTStaking.sol:NFTStaking",
            "label": "amountStaked",
            "offset": 0,
            "slot": "0",
            "type": "t_uint256"
          },
          {
            "astId": 46,
            "contract": "NFTStaking.sol:NFTStaking",
            "label": "stakedTokens",
            "offset": 0,
            "slot": "1",
            "type": "t_array(t_struct(StakedToken)40_storage)dyn_storage"
          },
          {
            "astId": 48,
            "contract": "NFTStaking.sol:NFTStaking",
            "label": "timeOfLastUpdate",
            "offset": 0,
            "slot": "2",
            "type": "t_uint256"
          },
          {
            "astId": 50,
            "contract": "NFTStaking.sol:NFTStaking",
            "label": "unclaimedRewards",
            "offset": 0,
            "slot": "3",
            "type": "t_uint256"
          }
        ],
        "numberOfBytes": "128"
      },
      "t_uint256": {
        "encoding": "inplace",
        "label": "uint256",
        "numberOfBytes": "32"
      }
    }
  },
  "userdoc": {
    "kind": "user",
    "methods": {},
    "version": 1
  }
}